:20F000002DE9F0410F460446ADF1200D0DF0A0FB674D2068286060686860A068A860654896
:20F02000804765492868086068684860A86888606248C860183008616148804761492868C6
:20F04000086068684860A86888605F48C8609C300861FFB1387B8DF808007E7B8DF80960FD
:20F0600002A80AF0CEFC386908B158490160786908B15749016057483978017079784170C8
:20F08000B9788170F978C1707E684660BC688460BB69C360504C51495020A21C04F10C0369
:20F0A0000DF086FE40B108200C27ADF80C002968ADF80E7003A88847686880470026494B53
:20F0C000666001275E8080461F704548066012200EF012F8FF21122260620EF00FFA04F1D0
:20F0E0002800FF2108220EF009FA12200EF004F83D4908600868122231460EF0FFF93046FC
:20F1000002F0F0F838460CF0C1FF384801880827FF2906D1022101807822001D31460EF0D4
:20F12000EDF9032009F08EFB04200CF006F805200CF0F6FD06200BF058FD072001F0BEF8CE
:20F140002B4831466A4601AB077010200DF030FE616A9DF8000008729DF8000048743846EE
:20F1600009319DF80020401E01F8012BF9D10EF053F820612968ADF810701420ADF81200E8
:20F1800004A888471526ADF818700598ADF81A602968606106A888470798A968801EA061B2
:20F1A000404688470CF00CF908B0BDE8F081C04648480020014C01102C4F0020FCDE0100A1
:20F1C00001500010E848002098D8010079D00100DFD30100E446002018460020B5D10100C1
:14F1E0007048002028470020A8480020604400204047002039
:20F1F4002DE9F843099D002600274FF6FF7835F8174044451CBF761CF6B27F1C062FF6DB38
:20F2140000270DE00CF1010C5FFA8CFCE646B64505DA35F8179035F81EE0F145F2D1E7B244
:20F23400B74208DA35F81740444504D0A14202D37C1CA446E8E7B7420DD176B1884202D05B
:20F254004BB1994207D3089811460EF017FB47F6FF71884201DB012000E00020BDE8F28354
:20F274002DE9F843DFF88C0CDFF88C9C017899F80000884200F0868000204FF4907301E0AA
:20F29400401CC0B288427DDAD9F8042003FB002808F104063278002AF2D1DFF8601C0968F2
:20F2B400B0700122327001EB8011002208F16104727001206071E072B280F280307388F86B
:20F2D400392008F18E007261327672830270E277002301F12602FF25937508F1E80780230B
:20F2F400E37400236375A37615707B76BB76FB763B77FB833B8488F80B31037108F1E3007C
:20F314000370437008F587703B607B60BB723B733B727B73038043808380C38047F230508E
:20F3340008600B714B718D7193729373D373137453749374D374FF22042108F177000DF07B
:20F3540049F925706570A570E5701F2020710020DFF87C1C421800EB0803527883F8F92076
:20F37400401C0828F6DB0020387499F80000401C89F80000C0B2012804BFB07889F80200D9
:20F39400404600E00020BDE8F28310B5DFF8404C0821601C0DF01DF9607840F01F006070E2
:20F3B40010BD70B5044609200EF064FAE8B100F0A9F800F03CF806F8010B04F1F901DFF85A
:20F3D400140C0078082818BF0E2030700822701C0EF013F894F8920008B100F01DFF07F013
:20F3F40059FA00F042F89847012070BD70B5044609200EF03FFAC8B100F084F800F017F89C
:20F4140030700822092006F8010F04F1F901701C0DF0F3FF94F8920008B100F0FDFE07F0B4
:20F4340039FA00F022F8984700F03FF870BD0A30C0B2E880002105F1080629602971697112
:20F454000320704738B5044601200EF013FA58B100F02FF8122000F023F807F01BFA00F002
:20F4740004F8984700F021F832BDDFF8443D1B69DB6C0246A06E2946704738B504460120AE
:20F494000EF0F8F958B100F014F8132000F008F807F000FAFFF7E9FF984700F006F832BDB6
:20F4B40003F8010F20460EF0E1B90020E08301207047A0F10905002028602871687105F125
:20F4D40008030620E8800122032018700321704770B5044618200EF0CDF9002811D000F072
:20F4F40011F800F061F80F2000F035F810B1182200F094FE07F0CEF900F025F89847FFF73D
:20F51400D4FF70BDA0F1090594F8920000B10420704770B5044618200EF0ACF9002811D03B
:20F53400FFF7F0FF00F040F8102000F014F810B1182200F073FE07F0ADF900F004F89847BA
:20F55400FFF7B3FF70BDDFF8EC3C1B69DB6C024630682946704703F8010F308C5870308CA7
:20F57400000A9870308CD870308C000A1871708C5871708C000A9871B08CD871B08C5972B2
:20F59400000A18729972FF20187358739873D873187458749874D874187558759875D87589
:20F5B400D97294F8920070471930C0B2E880002105F108032960297169710320187004F135
:20F5D4006806704770B5044603200EF053F998B3A51DDFF828192A780968A0F1090694F8B2
:20F5F400920001EB821100B10420001DC0B2F080002206F10803326032717271032018702B
:20F61400112003F8010F01F12400017859704078987094F8920010B1032200F0FFFD07F09B
:20F6340039F9DFF8103C1B69DB6C0246A06E3146984700202883012070BDF8B505460E4685
:20F65400DFF8F44BDFF8687B08E0007A03281CBF481C20703969A86E496D88473969A86E75
:20F67400096E8847217810B10279032AEDD0DFF8CC0B00781C2814DA99B1DFF8C40B0078B1
:20F69400814205D2012E0CD1DFF8B80B007840B1A879ADF80000ADF8021000F076F80020B2
:20F6B4002070F1BD2DE9F8430446DFF85008A1790068DFF8FC7A00EB811600F0EAFB804642
:20F6D400002007F059F9B079DFF86C6B0DF0A0F9A06E00B306E0007A00F051F83969A06E36
:20F6F400496D88473969A06E096E88470028F2D13969A06E496E8847054606E0287A00F097
:20F714003EF828460DF000FA2D68002DF6D13969A06E096D8847206FA0B13969096E8847F4
:20F734000546A946D9F8080020B10DF0EDF90020C9F80800D9F80090A945F3D13969206FC1
:20F75400096D8847DFF8F40A00781C2808DA307840B1A179ADF80010ADF8020000F015F8D1
:20F774000020307020460EF07DF820460EF076F8DFF8D41A096840468847BDE8F18303283B
:20F7940002D03078401C307070470DF1020200A901200AF0F1B970B5044600F07AFB04F1EF
:20F7B4007601FF234A79521E4A71D2B20AB94B7008E0002215197735521C6E782E70032AA9
:20F7D400F8DB0B7100220A70BDE87040DFF8781A0968084738B50446DFF8700A00680D4669
:20F7F4008047002204F176010A704D704A790AB901224A71BDE83440E8E72DE9F047054685
:20F814000C464FF49078DFF848AA0027012624E006EB0509DAF80400715D19F8012C08FB38
:20F83400010108FB02000968006849684068896880680EF00FF801280ED119F8010C715DA9
:20F85400484009F8010C3746715D4840705519F8011C484009F8010C761CA642D8DBFCB2C7
:20F87400002CD2D1BDE8F0872DE9FE4F0446DFF88C0600688946A17900EB811A2068476865
:20F89400B86849460DF0E6FF002840F0CE802068016948460DF0DAFF04F1800680463078DE
:20F8B400002804F12E0540F6C41B68D0218970880DF0E4FF02903078029902280CBFBAF899
:20F8D4002A00A888484301900BFB00F00090206800990069091848460DF0BCFF00284ED0E1
:20F8F40000983289A8EB00010BFB02F3B1FBF3F003FB101101B1401C02FB00F12289029B20
:20F914009A1880186081F2880198101801EB00093078012844D104F1840120460DF092FF24
:20F934007089E189608400202077E08360890818A081A9883089884202BFB1892A899142F3
:20F9540002BF7189EA88914208D0B1890909009142087389A17900200AF096F8A888AAF804
:20F974002A00307928703089A8807089E880B089288120460DF062FF0220307010E0A8883E
:20F994000BFB00F1B8FBF1F290B201FB128109B1401C80B2218941186181A98801FB00F9A2
:20F9B400206801690BFB0911B9600278802A06D1C160A9883A69091F0BFB01F151610178CD
:20F9D40040292BD1618A01FB09F14FF4C872B1FBF2F1491CC4F818906161BA68511AB96090
:20F9F4006269DAF82C1001EB42013A695161DFF8641832780968022A07D1A2792E7801EB77
:20FA1400421253690BFB06335361A279DFF8483801EB4211AA880BFB0232CA61B968816085
:20FA3400E87AA872204600F01DFB6189A0890DF025FFAAF82800E18981423CBF0120AAF8DF
:20FA54002800BDE8F78F2DE9FE4F0DF0F3FE4FF0000900F6C4140026DFF80058DFF89874A0
:20FA7400DFF890844FF4907A11E078680AFB0600417951B12A68817909F8021009F1010107
:20FA94005FFA81F92146FFF7EFFE761CF6B298F800008642E9DB787881451CBF822000F0BC
:20FAB400C1FB7878012812D1002601E0761CF6B298F80000864207DA78680AFB060041795B
:20FAD4000029F3D08079A0E0822000F0ABFB79782868FFF792FE29687B680A780AFB02323F
:20FAF400002012685468A668012202E0521C6046D2B24A4500F1010C07DA545C0AFB043496
:20FB140024686468A468A642F0D0C0B200281ABF5FFA8CF000280B78DFF8E08312D00B7833
:20FB340001220DE0565CD8F800E00EEB86140EEB831E248DBEF828E0744538BF3346521C0C
:20FB54008242EFDBDFF8184723704FF6FF7000F05EF801900026786821780AFB010040F6D4
:20FB7400C41100684068029001984008484300901AE0786821780AFB010001680A78802AF0
:20FB940003D1DBF81030009A5A610978402909D1DFF8C0168079096801EB4010009901F56F
:20FBB400A061C161761CF6B24E452DDA28682178305C8142F6D07A68D8F8001001EB8011BD
:20FBD4000AFB00F08318DB89098D4FEA530C8C4502D2591A8945E5DA8058D0F804B0029A5A
:20FBF4000198DBF80810926800EBD070401040F6C413A1F6C41103FB00200DF02BFE002813
:20FC1400B7D02868305C20702078BDE8FE8FF0B54FF6FF710C460023B74A03E0A64298BFE1
:20FC340034465B1CB34D2D78DBB2AB4216D255684FF4907606FB03556E79002EF1D005F18D
:20FC540080068C42377804D1002F0CBF6C8E3489E7E7002F14BF36896E8EDFE7A04288BF8D
:20FC74002046F0BD2DE9F84304468846164600270FE02A4641460DF0C0FB3846471CC3B27D
:20FC940003B101232A46494620460DF0CFFDA844761BB6B276B11C2EACBF1B25F5B2284634
:20FCB4000DF0C0FD5FEA0009E3D181200DF0B6FD072000E00020BDE8F2832DE9F04D8E4FAE
:20FCD400DFF8A065DFF8A0A50C46154679684FF4907282B002FB0018307801289B4602D07A
:20FCF400022830D068E0B068BBF1020F04D100F070F80020B06029E07388B188EA1891423A
:20FD140005DA00F066F80020B0608B2052E02A46214618180DF071FB70882818708080B2CB
:20FD3400B288904248D198F87400802817BF81287F209AF80010401A00F043F80020B08049
:20FD54007080022033E0BBF1020F35D1042DB8BF8C202FDB21786078091D41EA0020DFF890
:20FD7400DC14B08080B20978814238BF8A2021D3A84238BF8B201DD30DF04CFDB060C0B101
:20FD94002A4621460DF039FBB28895420BD198F87400802817BF81287F209AF80010401A94
:20FDB40000F00FF808E07088281870800120307002E081200DF032FD2046BDE8F64D0CF06E
:20FDD400A3BE40B200905B46B168B878D2B20CF0A7B90021B1807180022131700CF094BE0D
:20FDF4002DE9F84304462068007840284FD1E08B00284CD0DFF874040078012847D106F01F
:20FE140039FC00F046F805460DF014FD618E40F6C418891C08FB0109DFF834242068A1798E
:20FE34009278476891422CD1B86849460DF012FD48B30DF0EBFC064640F202400DF0E2FCF0
:20FE5400304606F099FD316948460DF0FFFC618E08FB01F2B0FBF2F0228980B282186281A0
:20FE740048432268126908FB0020B86004F1380041780170204600F0F5F830460BF0AEFEEC
:20FE940001E00069B8602846BDE8F4439EE4BDE8F183DFF8B8030068004770B50446A0793E
:20FEB4000DF0ACFC20BB1548A179006800EB8115FFF7EFFF06466879012803D1A07909F02E
:20FED400CAFE07E0287928B901202871122120460DF090FC687980F001006871AB1D28687E
:20FEF40042082146DFF888030DF0F1FA30466BE470BD0000BC4C0020B04C00201048002045
:20FF140030B587B040F60200ADF800000020ADF8020001900290ADF80C0001208DF80D0086
:20FF34000020ADF80E00D34CD34D2088D34A1278ADF8100002EB4202E86A81680968511851
:20FF5400B1F80110ADF81210994940680969059000A8C9698847012807BFBDF80200B0F587
:20FF7400806F892000F05EF9E868C54A41881278114321800078BC49800643BFC148006871
:20FF9400400A0020087007B030BD10B582B004461020ADF8000004EB4401B748C06A80686C
:20FFB400006808188249B0F801000969ADF8020000A889698847B148047013BDAE48AF4984
:20FFD400C06A80680978006801EB410108567047D04E0020B84C002030B50A7902F01F02F2
:0CFFF4000A71002280F83A200023545CBF
:020000040001F9
:2000000024FA03F5EC070BD590F83A502D1803EBC20485F83C4090F83A40641C80F83A407F
:200020005B1C082BEBDB521C052AE7DB30BD10B500F138025378D47801FB0431252391FBF8
:20004000F3F3252404FB131111700023117800E05B1C9478DBB2A34206D21C1894F83C4038
:20006000A142F5D1084610BD91FBF4F204FB1211081890F83C0010BD70B5044604F13800DB
:2000800004F18E0601784170608921890DF000FC05463078012801BF70882189491C884274
:2000A00006D104F161012046FFF7A0FF0020307029462046FFF7BBFF21684968887370BD70
:2000C0002DE9F44F674E8046707800280D4658D0B8F1800F55D17148817C012914BF042983
:2000E000012707D000294CD1007D022818BF032847D100270024DFF8A891DFF8A8A1DFF8A8
:20010000A8B11DE09DF800108A4202BF01792A78914213D141796A78914202BF8179AA7838
:2001200091420BD1C179EA78914202BF017A2A79914202BF407A6979884220D0641CE4B2C2
:200140009BF8000084421CDADAF8000000EB841170684FF4907202FB04004279002AEDD03E
:20016000006800784045E9D101F13000002F0278C8D1343148460DF043FB1028DEDA0120BD
:2001800000E00020BDE8F28F38B500F1F103474C1D7A6D070AD5434B85791B6803EB851355
:2001A00003F8241F5A70FFF717FA02E01A700DF023FB30B92078BDE834404FF480410BF010
:2001C0000FBF31BD2C4F002070B5044602200DF05BFB50B3FFF7A0F9C01CC0B2E88000217B
:2001E00005F1080329602971697103201870022003F8010F94F80C01587094F8920010B1E9
:20020000022200F015F806F04FFB0F4B1B69DB6C04F16806024630682946984704F10E00C4
:20022000002101820088F082012070BD33460922032120460DF024BB80B50DF0F9FA1C493E
:200240000020087001BD00002C4F0020BA4C002004480020874C0020884C0020504800207C
:200260004C480020B04C002084480020F0DDFFFF14480020BB48002000470020C04C0020C5
:20028000BB4C0020AFFE0000944C002058E00100B94C00200548002080130050EC49002087
:2002A0008C4A002010480020BC4C0020844C0020B84C0020DFF8741C0870704770B5DFF802
:2002C000704CDFF8705C20702878C0000CF014FF606048B3287880000CF00EFF0100A160DA
:2002E00004D16068BDE870400CF0F6BF4FF6FF7630460CF079FD6168002006E021F8306041
:2003000001EBC00300225A60401C2A789042F5DB052000F0AEF8207802F0CDFFBDE870404C
:20032000DFF8140C0AF0E2BD70BD38B50C46200418D5DFF8FC0B00780CF088F805000ED0FB
:200340002878B02808D1284600F00BF920B1297905F108000AF09AFD28460CF0DDFF84F42A
:20036000004032BD002032BD7CB504001D460CD0ADF800108DF80220019400A802F02FFF12
:20038000060019D1C5B164890CB9022614E00C200CF0B2FE08B913260EE0002101608480E3
:2003A0008560DFF8981B0A6812B9086004E00A4611680029FBD11060304676BD30B50D4636
:2003C000DFF8781B0446086883B0002201E00246006890B18388A342F9D10368002A0CBFB8
:2003E0000B6013600CF078FF00A9204602F043FF10B90DB1019929603EBD01203EBD70B583
:2004000058BB012927D1DFF8280B416800230C2601E05B1CDBB2DFF81C4B2478A34216DA0B
:2004200031F833404FF6FF75AC42F2D0002400E0641C4578E4B2AC42EBD201EBC3056D68AC
:2004400006FB04552D88002DF2D0012070BDBDE8704010780DE0182070BD022070BD0022B0
:20046000002803BFDFF8C80A407808700222104670472DE9F843DFF8B87A044600207870DC
:200480000C257868DFF8AC6A406805FB04F868B10CF022FF0020002204E0796801EBC001D0
:2004A000401C4A60C0B231788842F6D3307808FB00F080B20CF020FE5FEA000927D03078B0
:2004C00008FB00F2002148460DF018F800200FE0516805FB0CF34FF0000E23F801E05918EA
:2004E0000CF1010CC1F808E0A445F1DBC144401C3178C0B2884207D2796801EBC0024FF0AF
:20050000000CC2F80490EFE77C70002000E01320BDE8F28301460020C90706D50FF20C0350
:20052000DFF81C0D102204211EE77047000000004D0F01000000000001460020C90704D53B
:20054000DFF8FC0C4089002138E77047DFF8EC19096821B18A888242FAD188687047002075
:2005600070472DE9F04387B004460020ADF8100001208DF81200DFF8205DE86938B909F0DE
:200580003DFA0CF0B9FD0028E86100F0E6801822002128460CF0B2FF2079022800F1010878
:2005A00004F108074FF6FF7917D006282CD008282FD00A2832D00C2855D00E2800F088807F
:2005C000102800F08A80122800F08C80162800F09080182800F09680BCE009F00FFA2880E9
:2005E000294660880BF0F0F800283988288804D0814228BF014629809FE0814228BF01464A
:2006000060880AF0B1FBA5E004A9204600F0AFF87CE004A9204600F031F977E000F0A2F8B3
:20062000060050D0608805AB4A460B210AF0F2FB03006B6023D02079BDF8162003900095EC
:200640003146BDF8140000F0A3F900F028FA060004D1608829460BF001F929E0162E686878
:2006600008BF00262BE000F07DF806002BD0608805AB4A460D210AF0CDFB686020B93888A3
:20068000ADF81000112645E02179BDF8162003910346BDF8141002917988019100953146DC
:2006A00000F0FDF9060006D1608829460BF0E4F8002842D12BE0162E686808BF00260CF006
:2006C0002DFA0EB923E001263888ADF810001EE004A9204600F060F918E004A9204600F038
:2006E000E5F913E00DF1120204A9204600F080FA0CE004A9204600F0C1FA060007D18DF88D
:20070000120027E004A9204600F01AFB064696B1162E12D0607814280DD02079287029465E
:20072000BDF8100068802E7160880BF044F810B14FF0010801E0162E0CD160882B465FFA91
:2007400088F216210AF006FB20B15FFA88F128460AF09CFB20460AF034FA9DF8120007B05F
:20076000BDE8F08338880DF1160102F053BE2DE9FA4786B0044604F1080500F034FA0590FD
:200780006A1D0DF1120000902B796988288802F013FE002780464FF0FF0AB8F1000F5BD0D2
:2007A00009E0BDF810300B54BDF81000716892B2000A5054571C0598BFB2401F87424BDA9E
:2007C0002079BDF8122003904FF000090598CDF80490C01F80B20290414600F05CF9002831
:2007E00002BF328B2889904214D1F169E8680CF083FD78B1706858B900F048F907210AF088
:2008000009FB706020B9069928880880112032E0B8F80A90BDF81220698804AB404602F0C8
:200820001DFEB9F1000F8046B7D0706807F80090781C726880B24FEA29218154411C4A1C75
:200840007068B8F1000F89B2ABD101F800A092B2706802F800A0571CBFB247B1B8083080B6
:20086000314660880AF0D4FF28B1162003E00699288808800A2008B0BDE8F0872DE9F04F30
:2008800089B0044604F1080005908A4606886088DFF8045A07F050FA07900027001FB846AC
:2008A00006904FF6FF7900E0761C0698B84257DB04A80090059803794188421DB0B202F0D8
:2008C0007BFD5FEA000B4BD0BBF80A60BDF810209BF80810608802F0F2FC5FEA00083FD15B
:2008E00000F0DFF859460798001F00F050F805F118000090EB6900F0D2F85FEA00082FD19F
:200900007FB9608800234A4609210AF083FA686018B9AAF80060112036E0288B801C68804A
:2009200004E0298B6888891C88421AD1298B0698C919884214DB6968BBF80A007854BBF8DB
:200940000A106A6800F049F968682A8BE969BFB238180CF05CFD288BC7194E45BFB2A3D181
:2009600057B1688897FBF0F02880294660880AF05FFF48B1162007E0B8F1000F08BF4FF0E2
:200980000A08AAF80060404609B0BDE8F08F80B202900020019070472DE9F04F85B00D46D7
:2009A000044604F108066088DFF8EC7807F0C4F94FF0000BA0F10108A0F1010A16E03988DC
:2009C0003A8B084612189245BCBFA8EB010139837B683A8BF969C0180CF019FD3888398BBF
:2009E000081838800BF101001FFA80FBB0888345BCBF3888504537DA306810F81B2000EBE7
:200A00004B0004A9407802EB002080B202F002FD01000BD14FF0010900F02EF8786808B121
:200A20000CF07CF8484605B0BDE8F08F00F039F81FFA88F0FFF7ACFF07F118000090FB6988
:200A400000F02DF85FEA0009E6D178680028B6D100F01CF80F210AF0DDF900287860AED166
:200A600000F00AF81120DEE7608839460AF012FF0028D8D01620D6E7306810F81B1000EBA3
:200A80004B00407801EB002028807047608800234FF6FF72704706F118000090F36960888D
:200AA0006CE22079BDF81020039070472DE9F04786B08846044604F1080900F094F805906E
:200AC00009F1050204A8009099F80430B9F80210B9F8000002F070FC0027BA4605460FE0E1
:200AE0007268FF21B95480B272688154471C7068328BF169BFB238180CF089FC308BC719DF
:200B0000BFB2BDB1BDF81020297A608802F0D7FB5FEA000A0BD1FFF7C4FF29460598801F2F
:200B2000FFF735FFFFF7B7FF5FEA000A10D06889A8F80000002F43D0708897FBF0F03080BF
:200B4000314660880AF0B5FE002843D0162041E07FB9FFF79BFF11210AF05CF9706020B905
:200B60006889A8F80000112034E0308B001D708009E0308B7188021D9142DDD10599891F54
:200B8000C0198142D8DB7168688978546989726800F023F8BDF81020B9F802100DF11203DE
:200BA000284602F05BFC0546781C002DBFB297D07268BDF81210B954BDF81210090A92E779
:200BC000B9F80000A8F80000BAF1000F08BF4FF00A0A504606B0BDE8F087781C80B2090AAF
:200BE0008154471C70476088DFF8AC6607F0A4B82DE9F041044604F1080784B00D46388806
:200C0000904602A902F006FC06002FD0307A80060BD5BDF8080000F093F903000BD060884B
:200C2000122231469847060021D1787A002814BF5220207901E00E2619E0019000200090EB
:200C40007B887A683988608800F092FA060007D1787A70B960880AF03DFE50B116200CE051
:200C6000162E04D1002688F8006002E0012638882880787A00B1002630465EE02DE9FF4111
:200C8000044604F108068846308800A902F0C2FB002705004CD0287A80060BD5BDF8000024
:200CA00000F04EF9030015D0608812222946984707003ED16588284600F004F9010006D175
:200CC0004FF6FF7000F0FEF801002DD00D800022974B02E00E272CE0521C5878D2B2824242
:200CE00022D248680C2505FB02000588002DF3D10C2231460CF08BFB0C22314601A80CF02E
:200D000086FBB2886088002317210AF083F8039060B1B288B1680CF07AFB608801A90AF06C
:200D2000DFFD48B1162008E0092702E0112700E001273088A8F80000384604B0BDE8F081CE
:200D40002DE9F04383B089460027044604F10805608800F0B7F85FEA00084AD0287801281A
:200D600043D14146284600F050F8A0B1D8F804501820019068880090AB88AA682988608896
:200D800000F0F6F90746162F02D10020A8602CE05FB3288827E000250EE0019070880090E6
:200DA000B388B268608800F0E3F90746162F17D10020B0606D1CEDB25D484078854214DA46
:200DC000D8F804100C2202FB05121646318861B16B1C83421DBF9089002816201820DCE72C
:200DE000002FE7D03088A9F80000404600F07DF82FB960880AF081FD20B1162003E0162F52
:200E000008BF00273846BDE8FE832DE9F84F0C46002100250E464FF00C0B45480EE099424B
:200E200002BFBCF8027093B2BB4224D1BCF804305D19ADB29A18761C92B2F6B243789E420C
:200E40000EDA63680BFB063CBCF8003043B10029E5D1BCF80450BCF802201946AA18EAE710
:200E6000022E2CDB28004FF0000904D00BF064FF5FEA000801D1002022E0CA4619E00BFB45
:200E80000A07B96859B1BA8809EB08000CF0BFFAB88848441FFA80F9B8680BF03FFEBAF1C2
:200EA000000F04D00C22002138460CF027FB0AF1010AB2456068E2DBC0F80880858001207C
:200EC000BDE8F28F1A4A5268002100E0491C194B1B78C9B2994206D232F831308342F5D12D
:200EE00002EBC10070470020704770B5044600250BE0B06808B10BF011FE0C220021304697
:200F00000CF0FCFA002030806D1C09484078EDB2854206D260680C2101FB05063088002863
:200F2000E7D14FF6FF70208070BD00003B470020544800207C470020451201009C480020DB
:200F400080B5FFF703FB00B1806802BD30B583B00C78022C10D14C682578647805EB042420
:200F6000A4B242F60215AC4206D102240194069C00940BF0F6FC3EBD01203EBD2DE9FE4FAF
:200F80000D468046287AC00693461E464FF0000A0CD55846FFF7D4FF030000F0E4800A227F
:200FA0002946404698475FEA000A49D128780C9F0D9CDDF83890022816D100F016F94FF40C
:200FC0002051401A012810D9801E3AD0401E14D0FD3876D0401E00F07D80401E6AD0401E8E
:200FE0006FD0401E00F09180A7E0002C2AD1E868017839800278416883E0002C22D101205D
:2010000038800021E868007830706889401C80B202F000FA398860B10278921C5118398008
:20102000418971704189090AB17002784168F01C68E0081D388004220021701C0CF05EFA8C
:2010400093E0002C62D1E8680488042038803470200A70700DF10201204602F0DBF9050026
:201060001ED0EC68BDF802204FF6FF7800AB414602F0F4F940B92B786A689648022106F025
:20108000EBFD08B9ADF80080207802280AD161680222301D0CF0BBF93888801C388001E006
:2010A000ADF80040BDF80000B070BDF80000000AF0705AE054BBE868016840460CF0D4F906
:2010C00002E01CBBE8680088022139803070000A70704AE0E8680CF0BDF982B2A242B8BF5E
:2010E0004FF0070A41DB944208BF002206D009EB04019142B2BF4A46121B92B23A80E968A6
:20110000611830460CF083F92FE014B14FF00B0A2BE0E86807213980017831704178717050
:201120004188B1704188090AF17001793171C1887171C088000AB07117E05846FFF706FA43
:2011400000281CBFD0F800C0BCF1000F0BD00F980290CDF8049000943B4632462946404659
:20116000E047824601E04FF00E0A5046BDE8FE8F2DE9FE438046894617461E4602A948469A
:2011800002F048F905002CD0BDF80800FFF7DEF900281CBFD0F804C0BCF1000F1FD00A98B5
:2011A0000B9C0090019433463A4629464046E047060017D1FE2C15D02878022812D100F0B4
:2011C00014F842F6021188420CD13878797800EB012292B24946404600F060F802E00E26AB
:2011E00000E001263046BDE8FE8368680178407801EB002080B27047704700207047E0B533
:201200008DF808200223120A8DF80920FE2201920022009202AAFFF7ABFF0EBD38B504467D
:201220002D480D46816820460CF01EF9800705D529462046BDE8344002F085B8012032BDF6
:201240009C4500207CB50129044605D0022922D1012109F0DFFEF0B92046FFF733FE08B10E
:20126000FFF743FE01A800904FF6FF7502231B4A2946012002F0A0F80BE0F068016820468F
:201280000BF0B2FDBDF8042000232946304602F0E5F80600F1D173BDE4470020F8B5104FA5
:2012A00004463878FF280D46164611D00A200BF06FFF68B1B1210170448000214170017186
:2012C000C580068101463878BDE8F4400BF07ABBF1BD000094BA010054480020A8BA010026
:2012E0003B4700202DE9F84FDFF82C4BDFF82C5B2070072100206861DFF8240B01700D21FD
:2013000041804FF404718180DFF89C0BDFF89C1BA9618A7E0270FF2ACB7E437008BFFF2BAD
:201320000E7F86704F7FC77091F81EC080F804C0C97F417116D1FF2E08BFFF2F12D1BCF1EF
:20134000FF0F08BFFF290DD1DFF8981B0A7802704A7842708A788270CA78C2700A79027162
:2013600049794171DFF8801B0278DFF8C08BDFF8C07BDFF8C0EB0A7042784A7082788A7075
:20138000C278CA7002790A714079DFF8AC2B4871FF21DFF8A80B017041708170C170017163
:2013A0004171101D017141718171C17101724172002101708172A021818103218173072158
:2013C000C1730021017428214182012101750021817502F15A0100224A7001220A7042750A
:2013E0000020DFF85C1B0880D8F82C30DFF8541B58780870197839709A782A709E683679A2
:20140000761E8EF80060DB78DFF83C6B6B704FF4967333801B261B2392FBF3F306FB13227F
:2014200002B10122D218504328814FF0180A881C0AFB00F080B20BF05FFEDFF8DC6BB060FE
:20144000002800F09C803878002800F09B804FF49071484380B20BF04FFEDFF8CC9BC9F82D
:20146000040008B9B06888E0387880010BF044FEE86020B900F0D8F8D9F804007DE03878F6
:201480000BF03AFE286128B900F0CEF800F0CFF8E86872E038780AFB00F00BF02DFEDFF8FE
:2014A0008CABCAF8000038B900F0BEF800F0BFF800F0B7F8286960E03878DFF874BB40018E
:2014C0000BF01AFECBF8000050B900F0ADF800F0AEF800F0A6F800F09DF8DAF800004CE0F1
:2014E000387800010BF008FEDFF8481B086060B900F09AF800F09BF800F093F800F08AF88D
:2015000000F08BF8DBF8000037E0387800010BF0F3FDDFF8241B086080B900F085F800F0BE
:2015200086F800F07EF800F075F800F076F8DBF800000BF0D1FEDFF8FC0A1DE03878302194
:2015400048430BF0D9FDDFF8F41A0860D0B900F06BF800F06CF800F064F800F05BF800F033
:201560005CF8DBF800000BF0B7FEDFF8C80A00680BF0B2FEDFF8C00A00680BF0ADFE4FF4E6
:20158000804142E000F0FFF9074605F056F90CF02FF9DFF8F00B0069006880470CF024F948
:2015A0000CF01EF9DFF8980A002101600160C160C16004F08FFF0BF031FCDFF8881A40F225
:2015C000FF7008600CF040F906460CF03DF9864208BF0CF001F9D8F80C006978008808436C
:2015E000DFF8A41B08803846DFF8301C096888470C21DFF82C0C0CF0EBF8207800210BF01D
:2016000049F900F09BF84FF400512078BDE8F44F0AF0E6BC28690BF05FBEDAF800000BF0DF
:201620005BBEE8680BF058BEB0680BF055BED9F804000BF051BE10B50C46E00786B013D50F
:201640000CF0EEF838B100218160DFF8A40B0068010018BF8047DFF8C007007800210BF0FE
:2016600019F984F001005DE0A00707D500F05CF83C200CF0A9F884F0020053E06107DFF8FE
:201680009C0723D5DFF8A02901795268C0684FF4907303FB012200EB8110911D12F82C3FAD
:2016A000049353891B0903938B8B0293D2885208019200F134020092012290F830300978C6
:2016C00000200CF081F884F004002BE0210607D500F02AF83B200CF077F884F0800021E022
:2016E000A10508D5DFF83C0B016841F00041016084F4007016E0610504D502F002FF84F485
:2017000080600FE0610405D581200CF091F884F4804007E0A10443BF4FF0FF31416184F446
:201720000050002006B010BD0020049003900290019000900146002301227047F8B504F0D7
:20174000A3FFDFF8E40ADFF8E0680068DFF8E07780470446002005F019F940F201400CF0C6
:201760005BF8DFF8200A0069C06880470CF03CF8DFF8B807DFF8B41AC06A8068407908700F
:201780000025FEF7C7FBDFF8A80A0CF019F80CF013F80CF00DF8DFF89C0A0021017001714E
:2017A00041718171C171017241720022DFF8880700F10E010A70A0224A8007224A71032296
:2017C0000A7100220A738A7200F8592F0122CA720021427081700BE070684FF4907101FB4D
:2017E00005004179012908BFFDF766FF6D1CEDB238788542F0DB0BF0D7FF0AF06FF9FDF74F
:20180000CEFDDFF8341A00200870DFF8301A08700120DFF82C1A08700020DFF8281A087040
:201820000120DFF8241A08700020DFF8201A0870DFF81C1A0870DFF81C1A0880DFF8181A2E
:20184000087004F05CFF00F099F80020F2BD2DE9F0411446DFF8D85608B12A780270DFF827
:20186000C88711B198F801000870002C3DD0002600271CE0C9B2DBB2085502F130000179CA
:201880001955591C427900F033F8827900F030F8C27900F02DF8027A00F02AF8427A00F0F2
:2018A00027F80078C9B24E1C08557F1CFFB2287887421ADA38460BF0ABFF0028F5D1D8F8C5
:2018C00004004FF49071F6B201FB0700DFF84C15C968375501EB871200680078711C4B1CC7
:2018E00080280CBF00200120C4E70020BDE8F081C9B20A55491C704738B504460D460BF0D8
:2019000087FF48B9DFF81405C068A10108580A21B0FBF1F02880002032BD38B505460C462E
:201920000BF076FF48BBDFF83409DFF8F0244068D26800F050F8811D0B7802EB83153CB188
:20194000CB8D898D5B1C4900E20059438A4201D2122032BD0A216143296090F8920058B1A0
:2019600000F011F804460020687128684108A8790AF05CFF00F002F8002032BDDFF89C1858
:20198000096820460847DFF8A0080068004738B50C00054601D1122032BD0BF039FFB0B920
:2019A00000F016F801680978402901D00C2032BD00210A5D431A491C102983F8E220F8DB17
:2019C000012180F8E4100521FDF70EFF002032BDDFF8880840684FF4907101FB0500704738
:2019E00010B504460BF014FFA0B900F070FA402901D00C2010BD00F1F0010A78012A03D181
:201A000006220A77022102E006224A700D21FDF7EBFE002010BD10B504460BF0F9FEF0B994
:201A200000F0DFFB00F1F8010A78022A06D1817900F1F902002008F072F80FE00268127822
:201A4000802A08BF082107D0402A07D14978090701D4112010BD0E210BF0D6FE002010BD44
:201A600010B5040001D1122010BDDFF8BC05407808B10C2010BDFDF792FC2078DFF8E017E2
:201A800000F01F0020704A7810404870002010BD38B50D00044606D0DFF89004C06A806859
:201AA0000079844201D3122032BD04F0FDFE032803D02046FEF773FA02E0DFF87007047099
:201AC00001202870002032BDDFF86014C96A89680979884201D312207047DFF8581408700B
:201AE0000020704710B5140019D011B1012908D015E0FEF76DFA10F1800F20700DD13020EA
:201B000010BDDFF82804C06A80680168007900EB4000401810F8030C2070002010BD1220B8
:201B200010BD2DE9F0410C0082B0074690461D4627D0BA4E3078404528D338460BF068FEC7
:201B4000002847D100F06AFA01FB070706F050FB1B2298FBF2F21B2303FB128303B1012349
:201B6000318910181818814204DA01200BF018FE07202FE030781C2814DA002D18BF012D3E
:201B800001D0122026E0B8F11C0F04DB8A200BF04FFE30201EE02B464246214638460BF070
:201BA0004FFE13E0424621463846FEF765F888B920460AF0B3FFB879ADF800000DF10202FB
:201BC0000120ADF8020000A907F0E0FF3846FEF711F90020BDE8F68170B50646282E01DB62
:201BE000122070BDDFF87046207808B1212070BD04F04AFDDFF88C55286980688047700097
:201C000000F6621189B200200BF0C6FDDFF8540640F6070101804060002141808160017B73
:201C200001F060010173417B01F0F00141F00201417302218173DFF83016016100214161FF
:201C4000C17B01F0F00141F00101C1730C212170296989698847002070BD2DE9F041044610
:201C60000D46282CB8BF262D16460FDA002E18BF012E0DD0022E18BF032E09D0042E18BF83
:201C8000052E05D0062E18BF072E01D012205BE0DFF8C48598F8000008B1212054E004F0EC
:201CA000F3FCDFF8C875DFF8C81541F60A0038800022002078807F60B860387B00F0600040
:201CC0003873787B00F0F00040F00200787360006630B8738020F873DFF898053861796156
:201CE0000280857040F6C4124260C670027A02F0FE02027200224272C260C27A02F0F0028F
:201D000042F00102C272002008800021DFF868058180C1800470802145708670017285480B
:201D2000DFF860440078FEF73AF9092088F8000000222369DFF844055B68002198472169C4
:201D40008969384688470020BDE8F08170B50446282C01DB122070BDDFF8FC54287808B190
:201D6000212070BD04F090FCDFF80065DFF81015766041F609003080716100207080B06085
:201D80000022307B00F060003073707B00F0F00040F00200707360006630B0738020F07387
:201DA000DFF8E004306102600F22027101224271DFF8B424826055220273427382730022B2
:201DC0000261C27B02F0F00242F00102C273002008804880888000228020887100208860DA
:201DE0000021DFF894044170FF218170047000218180C1808021DFF88C4301720A2028703E
:201E000000212369DFF874045B6898472169896930468847002070BD844C002004480020BA
:201E20008C4C002070B5DFF830442078092818BF0A2801D0212070BD40F202400BF0ECFCD2
:201E40002078DFF8341409280BD1DFF8240400888880DFF8D8030078FEF7A1F80021002036
:201E600017E00A2817D1DFF81824538810889688CB801D1875198D809279802A18BF812A5B
:201E80000FBF7F22DFF8003493F90030D21A0A7201210BF07DFC0BF0A7FC0020207004F0CC
:201EA0002EFC002070BD00006C4C0020B63F005010B504460BF0ACFC40B900F008F880294A
:201EC0000CBF00211021FDF78FFC002010BDDFF88C0340684FF4907101FB0400016809783D
:201EE00070470000E81200507C4C002038B505460C460BF08DFCB8B9FFF76AFD00F1F90132
:201F00000A78520703D40F220A75072109E0DFF87C13C96801EB85110F2201F8242F4C70FC
:201F20001121FDF761FC002032BD000058E00100BC4C0020854C0020EC490020744C002088
:201F4000984C00208B4C0020964C00202DE9F04180460D4640F67B40A91F164681423CBF51
:201F6000B11F81421F4611D2AE420FD3B7F5FA7F0CDA069CA4F10A0140F6774291423FBFA7
:201F8000781C71004843B0EBC40F01D3122040E040460BF03DFC00283BD100F03FF801FB0C
:201FA0000800BA49C96800F1770201EB881113792BB11378002B1CBF0F2B102B02D0527AEA
:201FC000012A01D13A2024E002681278402A05D190F8F920920758BF11201AD500F182028C
:201FE0008D81CE810F824C820223937000239380838ED680DB1D1380178154810122CA710A
:2020000090F8F910890754BF00210F210BF0FCFB0020BDE8F0810000F44E00208F48406832
:202020004FF4907170470000B04C002080480020844800200C4F00201C4F0020104F002030
:202040001010044000000460F8B5834C2178092918BF0A2967D00B291CBF0C290D2962D084
:202060008B4DA97C002918BF012904D003291CBF022904290ED12A79002A18BF012A09D17E
:20208000032918BF022902D12B8AA02B77DB002847D0012873D1A87B012844D000291CBF5D
:2020A0000129042912D17B480078002867D06B494978814201D10920F2BD5E480278011D2C
:2020C0008020FDF7FDFF08B10B20F2BD012009F01EFD286000260120A87304F0D5FA0BF000
:2020E00053FB6D48182101FB0607387B40F080003873A87C012807D026B90BF0A5FB00F5FA
:20210000C87000E00020B860761C032EE9DB207828B9A97C6148085C20700BF031FB002066
:20212000F2BDA87B08B92120F2BDFFF72CFC06460BF022FB012804D00BF072FB29688842DA
:2021400007D104F0A1FA40F202400BF065FB012700E000270020A873286804F017FC2846DA
:202160000BF086FB207810B904F0C9FA02E00FB10BF006FB2949096830468847CFE712201D
:20218000F2BD00002C4F0020944C0020017841F08F010170C17841F02001C170017941F0E3
:2021A000C0010171417941F001014171817841F0300181700020704710B1284949780170C6
:2021C0000020704770B504460D4616460BF020FB30B900F006F800F58E70057046800020CF
:2021E00070BD1E4840684FF4907101FB04007047C44C00202A4B10B1012803D00CE01980C2
:2022000000207047188810701888000A507083209070AD20D070F3E7122070475048002032
:20222000E84E0020040009404C480020B94C00208C4A00209C4C0020864C0020BA4C00200C
:20224000874C0020884C0020BB4C0020894C00208A4C0020BE4C0020B84C0020B04C00201B
:20226000D04E0020404E002029417671284E0020204F0020A84E0020DC4E0020020000801A
:20228000C44E0020844E0020C04C002004480020EC490020BC4C0020244C0020C0D90010CC
:2022A000984C00200A7802704A7842708A78C97802EB0121418070472DE9F0420C46062C1C
:2022C00084B0074615461E460CD1688800F0BBFD019008B9022037E0C0684088288001988D
:2022E000C78807E00C9A0B9901AB00F0F7FC5FEA000928D101990A980870DFF8100C017864
:20230000491CC9B201B901210170142C0198017106D10198408868800199C9682889088120
:2023200000962B46019802792146384600F00FF85FEA000904D101981E2100F0E9FD02E0EF
:20234000019800F01CFD484604B0BDE8F0822DE9F041044684B00E4617469846172000F007
:20236000FBFE050025D00A9A100003D04146281D904700E00020010A2E70E9706F70A87047
:202380000521001DADF80800ADF80010019500A9DFF8C40C00780028204602D000F0DBF916
:2023A00001E000F009F8040004D028460AF0B6FB00E013242046FDE010B50B88DFF89C2C09
:2023C0000C2404FB0322303A536833B94B685360098950811181002010BD162010BD80B518
:2023E000052000F019F858B9062000F015F838B9042000F011F818B9072000F00DF808B1CF
:20240000012002BDDFF8580C007800281CBFBDE8014000F025B802BDDFF8401C0C2202FB56
:20242000001110B5A1F1300484B06168A9B1DFF8282C12787AB1ADF80000019100A9208940
:20244000ADF80800608900F086F910B160680AF065FB00206060012000E0002004B010BD12
:202460002DE9F843DFF8FC4BDFF8F45B94F80090DFF8F48B4E46D8F8000000EB0617387839
:20248000012811D1F86800281CBFC16800290BD0018891B9407FFF2806D16221384600F020
:2024A000B4FBF96800204877761C2878F6B2864228BF00264E45DED10646287886421AD29C
:2024C000DFF8940B0078A0B1D8F8000000EB0617384600F013F8010003D0384600F060FDCD
:2024E00009E0761C2878F6B2864226BF002020702670012000E00020BDE8F2832DE9F041A4
:202500000446DFF82C0CE56800886A8A84B0EE88B04238BF0646288A22B9811CB14206DABD
:20252000871C05E0811AB142B8BF871A00DB3746B8B200F011FE5FEA000839D06888ADF8BD
:202540000000CDF80480ADF80870688A50B9288A08F8010BBFB2000A08F8010BB7422CBFF1
:20256000BF1E2F8AE868698ABFB209183A4640460AF04DFFE08800A900F0EDF8060013D1D4
:202580002888401E2880698A2A8A7918698289B2914204D30021204600F002FD09E080B2EC
:2025A00038B9FF20687704E040460AF0B7FA00E01326304604B0BDE8F0812DE9F0470F461C
:2025C00084B08146388800F03EFC06001CBFF468002C7AD0F088484577D12089002870D005
:2025E000401EDFF8508B227F208180B2D8F8001001EB0211C988884203D16321304600F09F
:2026000004FB606920BB78680178427801EB0225ADB23A89A91C91426FF0010A0BD151465A
:202620000AF056FD78603D813A46307A494600F067FA68B94AE028460AF07EFB6061258318
:20264000514678680AF044FD78603889801E38816069A0B3638B3A89258BD1188D422CDB9C
:20266000D8F8005094F81CE005EB0E156D888D4221DB796818180AF0CAFE608B398908183F
:20268000608380B2218B88421FD17088ADF8000000AA606901904946208BADF80800307A8D
:2026A00000F02EFA10B160690AF038FA002060616083208309E0052104E0042102E00921C1
:2026C00000E00621304600F09FFC012004B0BDE8F087F0B585B004460D4616461F460A229D
:2026E000002101A80AF00AFFADF80C60AEB97888ADF80400DFF8380A0088ADF80800F8683E
:2027000058B1DFF8301A027F096801EB02114988ADF806100089ADF80A0001AB0FF20930F4
:2027200000902A4615212046FFF711FE040008BF002E09D10120387000220020387101462A
:20274000384600F026FA03E017B1384600F017FB204605B0F0BD70B50D460446288920B1B4
:20276000DFF8CC190988814201D21B2070BD686804210AF0ADFC0646288930702889000A1E
:2027800070702888B0702888000AF0702889051D4FF6FE70844213D10C200AF0F9FC010023
:2027A0000CD0902008704C8002200871CD808E60DFF8840900780AF005F917E0132070BD48
:2027C0003346AAB2002120460AF0D2FF010007D002280DD007280FD012280BD01F280CD1AC
:2027E000DFF87408017809B1491E0170002070BD142070BD022070BD042070BDF8B5044636
:2028000000200D4660602879022826D1E888042823DBA9680A784B7802EB03268A78C9787A
:20282000B6B202EB0127311D8142BFB215D1052F18BF042F07D0062F18BF072F03D038460B
:2028400000F001FB48B1268127806FF00301A8680AF03EFC60600020F2BD0120F2BD0B88AC
:20286000037002220B881B0A43700B88012B06D14A88827004224988090AC1700CE0022BA8
:202880000AD14A8882704A88120AC2708A88027106228988090A417110467047022A1BDBC7
:2028A0000A784B7802EB032202800288012A05D18A78C97802EB012141800BE0022A09D1B0
:2028C0008A78CB7802EB032242800A79497902EB0121818000207047012070470A880270D7
:2028E0000A88120A42704A8882704A88120AC2708A8802718A88120A4271CA888271C98898
:20290000090AC17108207047082A18D10A784B7802EB0322028011F8022F4B7802EB032290
:20292000428011F8022F4B7802EB0322828011F8022F497802EB0121C18000207047012081
:20294000704705E0022A00D10EE00120704700BF0A8802700988090A417002207047022AFB
:2029600000D101E0012070470A78497802EB012101800020704780B54B8800F8013B0422C1
:202980004B881B0A00F8013B0B8800F8013B0B881B0A00F8013B0B8873B94B88022B04D1C4
:2029A00049680AF028FD082206E0032B04D10822091D0AF02CFD0C22104602BD10B504466F
:2029C000042A084627DB0178437801EB0321618010F8021F437801EB03212180801C21887A
:2029E00099B96188022906D1082A14D104210AF015FB60600DE0032908BF0C2A0BD101465B
:202A00000822201D0AF003FD03E0012908BF042A01D1002010BD012010BD07E00A2A00D1BA
:202A200024E001207047000000BF00BF0A8802700A88120A42704A8882704A88120AC270F4
:202A40008A8802718A88120A4271CA888271CA88120AC2710A8902720989090A41720A20A1
:202A600070470A2A00D101E0012070470A784B7802EB0322028011F8022F4B7802EB0322F9
:202A8000428011F8022F4B7802EB0322828011F8022F4B7802EB0322C28011F8022F497817
:202AA00002EB012101810020704705E0042A00D113E00120704700BF0A8802700A88120A8E
:202AC00042704A8882704988090AC17004207047042A00D101E0012070470A784B7802EBA6
:202AE0000322028011F8022F497802EB0121418000207047E0E7042A00D1EEE7012070471A
:202B0000F8B504460D46164610200AF041FB070016D0A02038707D80002078702EB10C2242
:202B20003146381D0AF073FC04E00C220021381D0AF0E4FC3946204609F044FF0020F2BD0E
:202B40000120F2BD2DE9F04180460D4616461F4620200AF01DFB040019D0A220207066701D
:202B60006580069820716771079929B1182204F108000AF04CFC04E0182204F108000AF061
:202B8000BDFC21464046BDE8F04109F01BBFBDE8F08170B50D0088B0044616460ED11622A9
:202BA00000F070F8ADF8086036B96088ADF80A0003A9E06800F069F802A800E000200190AA
:202BC0006023002000902A46E188207AFFF7BAFF08B070BD00B585B059B9ADF80C20428824
:202BE000ADF80820C26802B15288ADF80A2002AA00E0002201926123002200920A46C18870
:202C0000007AFFF79FFF05B000BD30B5044689B0E0680D4638B34188ADF80A10622D18D146
:202C2000DFF80C25C18812888A4238BF1146428A008A801A80B20AB9801C80B290FBF1F26E
:202C4000ADF80C2001FB120080B1BDF80C00401C06E0DFF8E014007F096801EB0010C08862
:202C6000ADF80C0002E0062200F00BF86088ADF808002B4602A80190002200F0C0F909B0E1
:202C800030BD002102A80AF039BC38B504460D461222002128460AF031FCF4B1DFF8940405
:202CA000217F00680901095A2980217F00EB011149886980DFF878140988A9802188E98070
:202CC00061882981A1886981E188A9812189E981217F00EB0110C088288231BD2DE9F843DA
:202CE0005FEA030904468846164645D0012108F091F900283ED0DFF84404DFF86413007837
:202D000009780025002E0CBF0D46084600E06D1CEDB2854226DADFF85023126802EB0517D7
:202D200079880029F3D14EB120200AF0E5F9F860C0B1202200210AF0E1FB01E00020F86033
:202D40000020387005F1400078805FB1FC805EB1707A3872DFF8DC030068F968301A001174
:202D6000087703E0152008E087F80880C9F80070002002E0142000E00120BDE8F28338B55E
:202D80000446E56855B1E86808B109F0C7FE686908B109F0C3FE28460AF09EFA1022002138
:202DA00020460AF0ABFBFF20607231BD10B5DFF884231368002100E0491CDFF88423127802
:202DC000C9B291420AD20C01E25A002AF4D101461022E0180AF01BFB002010BD152010BD21
:202DE00030B5A14B1B680021002203E0844208BF491C521CD14C2478A2420DDA1401E55C1F
:202E0000002DF6D0E418E468002CEFD0C94D247F2D6805EB0414E9E7C8B230BD10B5002119
:202E200001E0491CC9B2C64A1278914209DAC14B1B680A01D45A002CF3D08442F1D1D0185A
:202E400010BD002010BD002201E0521CD2B2BB4909788A420ADABB49096801EB02114B8847
:202E6000002BF2D08342F0D1084670470020704710B5002300E05B1CB34A1278DBB29342DB
:202E80000DD200F026F8F6D0D4888442F3D1D468002CF0D064888C42EDD1104610BD0020B6
:202EA00010BD10B5002301E05B1CDBB2A34A127893420CDA00F00DF8F6D01478062C01BF0D
:202EC00014798C42D4888442EED1104610BD002010BD9C4A126802EB03125488002C704785
:202EE000002201E0521CD2B2944909788A420BDA9449096801EB02114B88002BF2D00B793D
:202F00008342EFD10846704700207047B94800204FF47A724A4300F1090301460FF2150019
:202F20000AF0DFBA10B50446607A09F07BFDFF20607210BD10B504001CBF6088002807D05B
:202F40001721204600F005F82046BDE8104016E710BD1CB50446207804280AD10020019056
:202F600000900A46E188207A1323FFF7EBFD12220FE0022818BF062805D100222046FFF7B4
:202F800008FE142205E0032809D1002200F04AF80622E18802B0BDE810400520B2E013BDF8
:202FA00070B5044688B0E668F0680D4618B109F0B5FD0020F060E06878B10188ADF80A10D4
:202FC0004188ADF80C100189ADF80E10418AADF81210008AADF8100002E00C22FFF751FEF4
:202FE0006088ADF80800642302A801902A4600F006F8002075773082708208B070BD002067
:203000000090E188207A9DE538B504460D46608806F06DFC2A4600F004F82046BDE83240F1
:20302000ADE600212046D5E500B583B0ADF80410ADF8062045490A78531CDBB2002B06BF54
:20304000012301221A460B7001AB414900911621FFF77DF90EBD0000D6460020B4470020C2
:20306000D8460020BA480020DC46002007212DE9F84381460F460025324EDFF8CC8013E05E
:20308000306800EB0514207868B1E08848450AD1072F04BF608806F02AFC3A46FFF7C1FFE0
:2030A0002046FFF76CFE6D1C98F80000EDB28542E6D32FBB16E0306800EB051738780028BB
:2030C0001CBF787AFF280CD0F888484509D13846FFF728FF14213846FFF73BFF3846FFF747
:2030E0004EFE6D1C15480078EDB28542E3D30425FF224946284600F005F86D1C082DF7DB46
:20310000BDE8F18310B5134B0C2404FB0030A0F13004608988420AD1606840B1FF2A1CBF04
:203120000178914203D109F0F9FC0020606010BD34470020E0460020D4460020D54600207E
:20314000D7460020DC460020D8460020B9480020F52A0100B447002080B5001D80B20AF0D8
:203160006BFB28B1BDE804406FF0030109F0B0BF02BD70470020704770B5DFF8C859287852
:203180000624604309F0B8FFDFF8BC19086008B9132070BD0020FF2206E03380401C002324
:2031A000F270B2703371C0B22B78984209DA0B6804FB003600280CBF4FF6FE734FF6FF730D
:2031C000EBE70FF2A14007F0EDFC0FF6A90008F0EFFA0FF6E90007F089FE002070BD70B5EE
:2031E0000446208868B160680378426800F073F948B9606803784268DFF8500900F06DF907
:2032000008B9022070BDA078C01F0A2801D3182070BDDFF83C59288820B12188C0F5803041
:20322000884201DA012070BD0C2009F065FF060001D1132070BD002007E06268298802EB6B
:203240000012401C5181491C298080B221888842F3D30020306008222146301D0AF0D7F85E
:20326000686810B96E6004E0084601680029FBD10660002070BD38B502460846DFF8D01862
:203280004C68002301E02346246894B1A5686D899542F8D12268002B0CBF4A601A6018B12C
:2032A0000822211D0AF0B3F820460AF015F8002032BD012032BDDFF89C180870704710B5F6
:2032C000044610461422114203D000F00FF9012204E04A0608D500F009F900220146204605
:2032E000BDE8104007F0D7BEC80701D4022010BD002010BD70B504460D46A8061E4609D51B
:20330000104600F0F3F801462046BDE87040012207F0C1BE882005420FD0104600F0E6F8EF
:20332000014605F00802204607F0B5FE48B1717A41B1317A012904D070BDA80701D40320E4
:2033400070BD002070BD7CB50446002000900D460223DFF804284FF6FF71012000F02CF863
:20336000060026D0002304221D21204607F052FD0190E0B170890199ADF800002B4604202F
:20338000ADF80200002201200870002001994870FF20019988700199C87000A9204600F0D7
:2033A00007F9040006D0019809F0B8FB02E0152400E00124204676BD2DE9F0478146DFF84A
:2033C000900744688A4690461E4600E02468F4B1002700E07F1CA088BFB28742F6D2A068BB
:2033E00000EB07156889484528BF8245F2D33EB1297868683346424604F02EFC0028E9D075
:20340000089810B1A16849890180284600E00020BDE8F087F0B5DFF83827536800E01B686C
:20342000D3B19D686E89B042F9DB9F88BA199042F5DA4FF0000C01E004F1010C1FFA8CF4E4
:20344000BC42ECD205EB0412B2F80AE08645F3D101B10E801046F0BD0020F0BD2DE9FC4124
:2034600004460027ADF804704FF6FF786089404515461E4608D001AA0092401C2378626803
:2034800080B2FFF799FF07462378626800F023F830B923786268DFF8B40600F01EF808B111
:2034A00060890CE023786268DFF8B00600F015F858B11FB1BDF80400A84203D0284600F09B
:2034C000C7F803E07889404400E0608906B130803846BDE8F681DFF88806022104F0BCBB08
:2034E00080B500F08AFA00B1008802BD80B500F084FA08B1807802BD102002BD70B50129DA
:2035000082B00446154616D0032918D0052925D0072927D0092929D00B292BD00D292DD003
:203520000F292FD0112931D0132933D0172934D0192936D039E0294608F03DF933E006F08F
:203540005DFAADF8000000A9204608F03DF906002CD12988204607F007FC27E0294608F0B0
:203560003FF920E0294608F053F91CE0294608F05FF918E0294608F071F914E0294608F081
:203580007BF910E0294608F085F90CE0294608F090F908E008F09EF905E0294608F0A0F9AA
:2035A00001E008F0AAF9064600E00226304676BD2DE9FC410D46044616461F4601A900F047
:2035C00029FA5FEA00081DD156B100F037F8BDF80000FFF78BFF00F036F85FEA000811D1DD
:2035E0002946204608F09AF95FEA00080AD1019CFF2F07D0A31C1E2221460FF2954007F06A
:2036000095FBE7704046BDE8F6817CB50D460446164601A900F0FEF917280ED04EB100202A
:2036200000F00CF8BDF80000FFF760FF00F00BF818B92946204608F066F976BDADF80000C4
:2036400000A92888E6E601460122204607F023BD10B50446FFF744FF08B1611E0C18A0B2A8
:2036600010BD00002DE9F0470D468046A87800241E2888B0914614D1404600F0DFF9040047
:203680001EBFA078FE28FF2822D0002000900022AB78E078414607F01EFB204600F0E2F9E1
:2036A00016E0122804BF6878012813D0404600F0C5F904001CBF2279002A0BD0100607D487
:2036C000A978404607F063FB207940F08000207100206BE0DFF87C743878FF2817D0A97803
:2036E000881E172813D20FF27C4A48080AEBC000A0F10806306800281CBF7068002806D024
:20370000287810B96A78012A03D1122901D006204CE002A90091AB88AA6869783668B0470A
:20372000060042D1AA7852080AEBC20202A952F8042C4046904706001CD1AB78042B34D070
:2037400002A8009000223878414607F0C4FA06002BD1A97802A807F033FB10B1002089F8CD
:203760000000A878122804BF697801291DD0E4B120711AE06878C0B9A8788DF800008DF891
:20378000046000A9A878042818BF0628BDF80800ADF80200404608F00EF828B100AB01223C
:2037A0001621404607F0D6FA0026304608B0BDE8F087002070472DE9FE430D46804628881E
:2037C0006988814200D308B901206AE00021ADF8041002914FF6FF7900E0401C002100911E
:2037E0000A466988002380B2FFF7E6FD070034D0BDF80400002835D100AB4A460521404681
:2038000007F008FB040001D111204AE002943878022806D101208DF80600BDF80000860847
:2038200024E002208DF806001221BDF8000090FBF1F6788904F8010B102200F034F81034E2
:20384000BDF80400401CADF80400B6B2BDF80400B04202D278894845BFD1BDF8040080B9B3
:203860000A201EE09DF806000128E2D138780228F3D1788904F8010B022200F014F8A41C22
:20388000DEE701A9404607F0ABFF48B101AB05221621404607F05EFA10B1029809F03EF92F
:2038A0000020BDE8FE837889000A04F8010B2046796809F0ACBD10B582B04C8808888442E5
:2038C00000D308B9012016BD00F015F808B90A2016BD002016BD10B582B04C880888844291
:2038E00000D308B9012016BD00F005F808B90A2016BD002016BD002200924A1D0B7921469C
:203900005AE510B5044682B0084600A90088FFF781FD08B9012016BD017ABDF800202046C9
:20392000FFF7CDFC16BD70B582B006460D46002401E0641CA4B2A888844229DA286810F893
:20394000142000EB440000A9407802EB002080B2FFF760FD50B9286810F81410017028684B
:2039600000EB440149784170012076BD017ABDF800203046FFF7A3FC0028DAD0296811F88A
:2039800014200A70296801EB440252784A7076BD002076BD10B50C4682B02088618881420F
:2039A00000D308B9012016BD23796D48621DFFF794FD08B9102016BD00200090237961882F
:2039C0002088621DFFF7F8FC08B90A2016BD002016BD38B504460D4600A92888FFF71AFD35
:2039E00008B9012032BD017ABDF800202B462046FFF780FC32BD002070475549496800E068
:203A0000096829B18A6852898242F9D1081D70470020704710B50C4600F010F860B104B178
:203A200020608078FE2801D1172010BDFF2801D1002010BD162010BD022010BD10B5424AE9
:203A40001268002100E0491C3E4B1B78C9B2994206D206234B439C5A8442F4D1981810BD87
:203A6000002010BD10B50446A01C07F067F9FF20E07010BD10B50C46FFF7E0FF30B10179B4
:203A80004A1C944204BF01F08001017110BD000010B582B004001EBFA078FF28FE280BD05E
:203AA000002000901E232188E078172207F013F9FE20A070FF20E07013BD000070B50446FC
:203AC0004FF6FE70844282B036D04FF6FF7651B92046FFF7B3FF78BB3046FFF7AFFF050011
:203AE0002AD0048073BD012906D12046FFF7A6FF050021D02E800BE002291DD101212046E6
:203B000007F088FAC0B92046FFF798FF050013D0A878FF280ED0FE2807D0002000901E23C5
:203B2000E8781422214607F0D6F82846FFF79AFFFF20A8700020287173BD7047044800881B
:203B400070470000AE4800209848002094BA01002047002039470020CCBA01009CBA010044
:203B600090BA010049780100B33701007B780100B7370100F9780100B73801008579010009
:203B8000D7380100E579010003390100557A010003390100937A01002739010085790100FE
:203BA00095390100057A0100D33901000000000000000000EF7A0100D33901006F7B010047
:203BC000F7390100DFF8D4088178FF2900D170472DE9F84F40684FF4907202FB0104DFF835
:203BE000C008A179006800EB8110009004F20B100178012908BF417800F0A08004F17400C2
:203C0000007B022803D104F174010020087304F58C75E98811B1287908F0E2F960892081FB
:203C200004F5877EDFF87C0890F807C0817A077BC67A437B61447918711819441FFA81F8B3
:203C4000BEF80410491CAEF80410BEF800104144AEF80010827ABEF802105118AEF8021095
:203C600018212D68DFF84028DDB1D2F8009094F806A001FB0A9A9AF80EA035F81AB0D8442A
:203C800025F81A8094F8068001FB089898F80E8090F80A9005EB4805B5F84A80C844A5F822
:203CA0004A80BCF1000F08BF002E03D1002F08BF002B28D02389E589EB18A38100232374A1
:203CC000237F012B04BF638CE38343788BB10123237704F174039B78002B02BF04F1740372
:203CE0001B7B002B05D104F174039B7E0BB9638CE383009B2C331D7C4DB3022D04BFC57ACB
:203D0000002D20D122E0E383837A3BB100232374237F012B07D1638CE38304E0BEF80630AF
:203D20005B1CAEF806302389A5899D42CDD1207C08B1052B01D0082100E03E212046BDE810
:203D4000F44F09F011BD457A0DB102251D74DFF85C57C77B2E682568FF0707D50169E960A0
:203D60000022A17906EB41114A610CE0A77906EB471676691E601268A37901FB03218968BB
:203D8000E9600021E183DFF828174969097889074CBF807B812084F87400204600F0C1F9D5
:203DA00001280BD001212046FBF751FC00F008F801281CBFBDE8F14F09F0E2BCBDE8F18FA3
:203DC0002DE9F84FDFF8D406416880784FF4907202FB0014DFF8C806A179006804F1680555
:203DE00000EB81162868006804F18E0708B100200CE0A87B002804BF287E002807D1387896
:203E0000002804BF207F012801D1608CE0832089E18B0818401C6081204609F0A1FC012837
:203E20001EBFDFF890060078012801D100F073F9287E01280CD16A8B6189208909F08CFCB4
:203E400030B121896289481C82421AD06A8B0FE03878012815D17A886189208909F07CFC31
:203E600000281FBF2189481C6289824209D07A88824206D0501E608180B209F009FD401E2C
:203E8000E08306F12C0898F8100008B100F043F904F12E07287E012801BF688B2189491C54
:203EA000884237D1608104F18401204609F0D4FC688CE189608400202077E0836089081841
:203EC000A0812189688B09F0E3FCB988EA8B01FB00262A8CA88C8A4204BF3989884202BFAE
:203EE000698CFB88994207D0000900906B8CA1795208002005F0D2FD287F3870288CB88075
:203F0000688CF880A88C3881204609F0A1FC0220287600E0BE88E08B2268D2F80CC0401C7F
:203F200000FB06F3DFF8906540F6C41000FB03F18C44C2F80CC03668DFF880C53678BCF856
:203F400000E0DFF86025B609032E12D1D67BF60748BF4FF0000E0CD40EF101061FFA86FE2D
:203F6000BEF1010F12BF668AB8F80E6006F2DC5600E0668A5E434FF4C879B6FBF9F6761C52
:203F80006661ACF800E0A3614FF0180CE38B94F80690D4F800E084F82030DFF80C351E68C9
:203FA000DEF80CA00CFB0969D9F80890CEF8109094F80690D4F814B00CFB0969AAEB0B0A62
:203FC000C9F808A094F806900CFB0969D9F80890CEF808904FF0000994F806E00CFB0E6ED9
:203FE0009EF80C6006F0F00646F002068EF80C60D3F800E0A6790CFB06E6A6F80290DFF8DF
:20400000AC6494F806903668D4F814B006EB4919D9F814A00AEB4B0AC9F814A02D7E022DCF
:204020000AD1A57997F800A006EB4515D5F8149000FB0A99C5F8149092F80F90A5795FEA0D
:20404000C97935D50CFB05E5D5F80890A9F5A869C5F80890A5790CFB05E5D4F800E0AD68EA
:20406000CEF80850691ACEF81010A17906EB41114D6905F5F6654D61A17906EB4111496994
:20408000C8F80010A179BD88DFF8347406EB411100FB0570C861DFF82C140978A0790129BB
:2040A00006EB40101EBFDFF80814896A497810E006EB4511BD8849694543A1F5E661A5F50E
:2040C0001675A942DED30821204609F04DFB01201FE0C1721868A1790CFB010021684860C3
:2040E0000020107050709070D070107150719071D071107250729072D07210735073D0738B
:2041000010610720DFF8C01308702046FBF7B4FF0020BDE8F28F0020E0832089401C60812B
:2041200070472DE9F84F804608F10605DFF8700329780068DFF86CB300EB811608F1F909DB
:2041400008F1E80408F1660706F1250A07E0404609F0FEFA012875D14046FBF726FB787D93
:2041600000286FD0787C02282AD0042835D0052848D0062878D00728E9D0092800F0D48077
:204180000B2800F0AA800C2800F003810D2800F0B9800E2800F0D5800F2800F0228110284F
:2041A00000F03681112800F04A81122800F00F81FC2847D0FD2800F05B81FE28CFD15CE17B
:2041C000387C012805D19BF8030000280AD0162142E14046FBF7F8FF46E1387C01280DD1E9
:2041E00000F082F900F0328100F082F9287808F1B40208F1AC0109F0A7FAB0E7404609F0A1
:204200009FFA31E1387C01280FD19BF8020028B1012088F89200002020606060A07A0128F2
:2042200063D1062100F065F999E798F8E300012809D1404609F080FA012803D10020A072B7
:204240000120387427E108F1E30040780028F9D008F1C30208F19C0108F1D30009F068FA89
:20426000012088F8E3007AE7387C012831D100F03BF93AD0A88B28834046FBF796FA00F076
:204280003BF90120B871207A0128607C0DD1C00606D50020707130684108B07908F0C6FABF
:2042A0002878002109F040FA0DE0C00606D530684208B31D4146854809F013F928780122AE
:2042C000002109F02DFA002020722073E072A07245E7404609F020FAC6E0387C012805D1D6
:2042E000E07A012808BFFC219CD0AFE0404609F00FFA01284CD10020E07288F892000120E9
:2043000038742CE7387C01280AD100F0EDF806D0002088F8920000F0EFF80120B87191E0B7
:20432000404609F069FA9FE0387C012805D100F0DBF8DAD0A88B28830EE74046FBF760F859
:2043400092E0387C01281BD1207C022805D129784A46002005F0E3FBFEE6032807D12978DA
:204360004A461A2005F0DBFB00202074F4E600F0B5F80DD129784A46222005F0D0FB6AE022
:204380004046FBF718F83874F88A38830120207481E0387C012814D1607E012808D1A07ED6
:2043A000012804D100F094F8002009F0ADF9D3E600F094F86FD100F08BF8222009F0A4F904
:2043C00049E00120E076404609F09AF94CE0387C012808BF9BF802002AD04046FBF73CF820
:2043E00042E0387C01280FD1707A012816D0307A01281CD100203072009002460146002321
:204400001A2005F04BFBA7E64046FBF76BF82BE0387C01280FD1707A012808D10020707209
:204420000090024601469AF800000023E9E7B87E0028E8D10AE04046FBF775F814E0387C4A
:2044400001280ED19BF803000028DCD1388B401E388380B2F8B92221404609F085F90120C9
:204460001AE04046FBF7B8F83874F88A388312E09AF8011000F03DF841E79AF801000F2885
:2044800009D100F035F8708A0090338AF289B189287805F027FC0020BDE8F28FB04C00200F
:2044A00010480020704E0020804800208448002058E00100894C00201C480020B048002008
:2044C000F0DDFFFF864C0020B84C0020AFFE0000208C0090E38B227F29787047388B401E8A
:2044E000388380B2002870479BF8020000287047FC214046FBF778B901203870404609F06E
:20450000FBB870472DE9F04104468846122740464FF6FE7188421646DFF8A85808D1A86978
:2045200050B30268100027D041462046904720E04FF6FF71884212D1A86938B1026810006D
:2045400004D0414620469047070005D03146204600F089FA07000FD12C706E700CE006F054
:204560002BFD48B10078A04205D13146404609F0BFF8074600E003273846BDE8F08110B58D
:2045800004462389E288A188608884B005F01CFE08B9022029E02088012106F03BFD08B9C2
:2045A000142022E0208806F046FD042812D1DFF8140881894FF6FF72914218BF112014D162
:2045C0002188818161888180A188C180E18801812189418100200290019020890090E3889E
:2045E000A2886188208805F007FF04B010BD70B50C46DFF8D4170978022918BF0129154643
:2046000001D1122070BD0DB9022070BD06F0D4FC060001D1142070BD1CB1307940F00200AD
:2046200030711022294606F1140008F0F0FE28697062002070BDF8B506000C4601D102209E
:20464000F2BD308806F0B8FC050001D11420F2BDDFF874070078022818BF012803D0287B25
:20466000082802D10CB11220F2BDDFF85877786908B11120F2BD2C2008F03EFD786108B960
:204680001320F2BD2C2200F0A3FA7869318841801C22311D001D08F0BAFE7969022008702D
:2046A000287B7969328808280CBF012000200B1DDFF81817097800F08BFF06461CB12146D6
:2046C000284601F047F90EB100F042FA3046F2BD38B504460D4606F06FFC08B9142032BD5C
:2046E0008DF8005000A9204601F06EF832BD38B5002298B101230624251815F8015C303DD6
:204700000A2D0BD203FB05220A25641E6B43E4B2002CF1D11046BDE8344001E0022032BD1C
:2047200030B505460C4685B0204606F045FC08B9122019E0DFF89806854228BF022013D20F
:204740001022002100A808F0D9FE280A8DF801008DF80050280C8DF802002146280E8DF825
:20476000030000A800F077FF05B030BD2DE9F0418046DFF854060078022814BF0128122078
:2047800082B00C4615461E462BD00DB9022028E0404606F011FC070008BF142021D0B86A4D
:2047A00008B108F099FD1C21284608F0E1FD0100B96208BF132014D0387B082809D146B183
:2047C000887E009001F112030A8A404601F0ECF800E00020397941F004010CB141F0020174
:2047E0003971BDE8F6812DE9F0410D4606F0E4FB04001ED0656200F0EEF9C5B205B9257822
:20480000666A94F80580102008F0C2FC070010D0D0203870062200207870A11D0920B87013
:2048200087F80380381D08F0F2FDFE60394628461EE0BDE8F0812DE9F04104460D46904621
:204840001F460E2008F0A4FC06000FD0D020307006220020707041460C20B070B580B01DBB
:2048600008F0D5FD37733146204601E0BDE8F081BDE8F04108F0A6B8F0B5040087B051D0C3
:20488000A079DFF84055002828690CBF0826042608B9DFF840050778DFF83C05006820B10A
:2048A000416808001CBF00208847E07904F1080105F066FF217DE07105910246618A04917F
:2048C00004F10803218A0391E18902910196A18800913946E07800F063F8E07870B9172071
:2048E00003900122E0890290019604F108000090E379A188384606F008FBE070286908B14D
:2049000000F03EF9287868B1697800F0ACF848B1E378312B04D0A2882978184600F06EF83F
:204920000020287007B0F0BDE0B50021029101918189009143890289C188808805F0F4FC58
:2049400007BD70B505460026A88806F035FB18B10678A88806F006FBDFF86844207838B135
:20496000864205D1617800F07EF840B1002020702EB1AB79AA88A878314600F03FF86069FD
:2049800008B100F0E5F8A88806F055FB042802BFA888A189884204BF4FF6FF70A08170BD45
:2049A0002DE9F0410646884617461C46162008F0EFFB050020D0D02028706E700520A87027
:2049C000EF702CB106222146281D08F020FD04E006220021281D08F091FD069868812946C4
:2049E000079828730898E881099828820A9868820B98287540463BE7BDE8F081F8B50446A8
:204A00000D4616461F46082008F0C2FB48B1D02101704470062181708680877101462846CB
:204A2000DCE0F1BD2DE9F04180460D4616461F460C2008F0ADFB040013D0284606F0BCFA1E
:204A400008B9DFF890030078D021217084F801800721A170A580E6802781069961812146E0
:204A600006E7BDE8F08110B50C4606F0B9FA28B12146BDE81040408808F03ABE122010BD87
:204A80002DE9F84F0746894692461C46484606F093FA5FEA000B1EBFCA4D6969002955D0EA
:204AA0000A6A182002B134208A6A02B1143004B11C30496A01B1163080B208F069FB060018
:204AC00044D0182200F084F800F085F85FEA000808BF9BF80080D020307077700A20B070C3
:204AE000A6F8049086F806A006F118076969086A38B1B7603846096A00F11C071C2208F0CB
:204B000086FC6969886A38B1F7603846896A00F11407142208F07BFC3CB13761384600F1F9
:204B20001C071C22214608F072FC6869416A29B177611622416A384608F069FC31465FFA8B
:204B400088F007F03FFFBDE8F14F01E0BDE8F18F10B59C4C606990B1006A08B108F0BCFB34
:204B60006069406A08B108F0B7FB6069806A08B108F0B2FB606908F0AFFB0020606110BD35
:204B800010B5904C206918B108F0A6FB0020206110BDF8B504460D46284606F00DFA060060
:204BA00015D000F018F8070008BF3778062008F0EFFA06000BD0062200F00AF8D020307001
:204BC00074700E20B070B5803146F8B206E0F1BD002108F093BC262005F0C2BCBDE8F440BF
:204BE00007F0F0BE2DE9F84305460E4617469846304606F0E1F95FEA000921D0102008F034
:204C0000C7FA04001CD01022FFF7E2FFFFF7E3FF08B999F80000D021217065700F21A17018
:204C2000A680277284F80980C0B20899A1720999E1720A99E1602146BDE8F44307F0C2BEF7
:204C4000BDE8F1832DE9F0410746884606F0B4F9040022D00E2008F09BFA05001DD0FFF79D
:204C6000BAFF060008BF2678D0202870062200206870A11D0B20A870E81C08F0C8FB18F0A0
:204C8000010118BF012129736F8118F0020118BF01216973F0B22946EAE5BDE8F0812DE9A1
:204CA000F14F90460D469946404606F085F907000A9EDDF82CA0DDF830B00D9C3ED09DF861
:204CC000000000283AD1387940F010005FEA49714CBF40F0020000F0FD00002E08BFBAF1E3
:204CE000000F08D1BBF1000F08BF002C03D100F0FB00387122E040F0040038713CB1206961
:204D000078621022214607F1140008F080FB3EB135B9B86A08B108F0DFFA1C2130460AE07B
:204D2000BAF1000F0AD0012D08D1B86A08B108F0D3FA1C21504608F01BFBB862214D6869FE
:204D4000002839D06EB1006A20B91C2008F0D4F9696908626869006A18B11C22314608F0D2
:204D600056FBBBF1000F0ED06869406A20B9162008F0C2F9696948626869406A18B1162214
:204D8000594608F044FB74B16869806A20B9142008F0B2F9696988626869806A18B1142237
:204DA000214608F034FB9DF8000053464A46414601B0BDE8F04F63E6BDE8F18F0749086065
:204DC000704700009846002065460020F446002040420F0064460020F84600209048002048
:204DE0002DE9F04FC80BADF1140DC003039108BF002000F0EA83B24D287807F027FB061C57
:204E000000F0DF83AF4C216849B1B1F1FF3F06D0BC48007807F0D6FD4FF0FF302060307830
:204E2000813800F0AD80401E40F0C883B78896F806B096F802A04FF000094FF00108384602
:204E4000401E6AD0401E47D0401E2FD0401E40F08B805FEA0B0025D0801E1CD0401E15D039
:204E6000801E0ED0401E06D00C383FD13089B17AFCF7D4F92EE0307AB17AF268FBF7BFFAA2
:204E800028E0307AF168FBF7EAFA23E03089F168FBF794FA1EE0B068B189B27B3369FBF791
:204EA00063FA17E0B068FBF735FB13E0B07970B1401F07D0401E19D1307AB17AF26805F085
:204EC000EDFC07E0307AF16805F028FD02E0B06805F042FD05461EE0B0794D46103816D084
:204EE000C01E0FD0401E09D0401E01D04046F1E73089B17AF268FEF701FBEBE7B06805F023
:204F000060FE07E03089B17A05F055FE02E0307A05F04EFEC8462C4624E0B0794C46001FF5
:204F20001FD00C381AD0401E11D0401E0CD0401E012807D9801E14D0801E18BF444611D111
:204F40000A2008E002240DE006F08EF803E03089B17A06F05FF8E871C14603E0307A06F0B9
:204F6000E9F8C846254600E04546304608F0D4F9B8F1000F00F025834C46CDF810A015E3E2
:204F8000B078B78896F806B03F2300240490B3EBA72F40F0CA81C7F3C210002800F0C58173
:204FA000C7F3C2103246002800F0BD81401E00F06381401E00F04381401E00F02D81401EF9
:204FC00051D0401E40F0AF8107F07F00401E22D0401E18D0401E43D0401E04D0401E34D0E1
:204FE000401E22D01FE0BC4895680088002D37D0BC4929609223A8807322AB7124212A8199
:20500000204669812DE0107A517A08F0A3F938BB08F078FA25E0107A517A08F09BF9F8B956
:2050200008F06EFA1DE001201BE04FF6FF70ADF80400FEF783FDADF8040001A90222E81DA9
:2050400008F0E5F9022400200BE007F0F9FD0424E871010A2972030C6B72020EAA72F2E744
:20506000022005467DE007F07F013046112903D93039082914D956E1DFE811F05100550136
:205080005501C80055015501C200BA00B6005501AF00A900A3009D0096008E0088008400F6
:2050A000DFE801F032126A660563616161C0007A01F01AFE0028029055D002A904221AE0AC
:2050C00040470020184800204FF6FF780089ADF80680FF2807DA262805D0272803DA05F0ED
:2050E0003FFAADF80600BDF80610404688423AD00DF106010222ED1D1446284608F087F934
:2051000000204FE2B2480020018926292BD0272929DA0A464189104605F014FA42E2457AA7
:20512000D0F80CA0D0F81090D0F814802946491E04D0C91E18BFB1F1080111D1007A294659
:2051400005F017FA051C0CD150464946424605F024FA01F0DDFD06F079FD03F0C7F800E0C2
:20516000022528461EE202201CE201F0C7FD19E2806801F079FD15E28268C168104607F024
:20518000F1F90FE28068FFF7FAF90BE20289817A1046FFF79DFA05E20589817AC268037CF4
:2051A0002846FFF7E3FAFDE10389817AC2681846FFF71DFAF6E10289817A104606F02AFDE4
:2051C000F0E1C26801891046FFF791FAEAE18268C1681046FFF72FFAE4E1037A4189027B97
:2051E0001846FFF78FF9DDE1007A01F017FDD9E1057A417A827AC368284601F0D8FCD1E196
:20520000027AC168104601F07FFCCBE1027AC168104605F0E1F9C5E13346188907F07F0576
:205220001B3D07D0AD1E7ED1D9681A7C5B7CFEF7BFF9B7E1D9681A7CFEF7E7F9B2E110895A
:20524000D16807F07F02521E13D00A3A0ED0921E09D0921F04D0921F65D106F04EFBA1E172
:2052600006F038FB9EE106F007FB9BE106F0F6FA98E106F0A0FA95E107F07F0070280CDCB7
:20528000702831D0801F4AD00C3842D0801E3AD0401E32D0401E2BD045E071381ED0401EEB
:2052A00015D0401E0ED0401E06D0401E3BD11089D16804F099FA75E11089917AD26804F0AE
:2052C00060FA6FE11089D16804F043FA6AE1107A518904F02AFA65E198E00100906804F0AF
:2052E00001FA5FE100010200906804F08DFA59E11089518904F00EFB54E11089917A92895F
:2053000004F0E2FA4EE110895189928904F0B1FA48E11089D168127C04F02DFB42E1108900
:2053200004F0E5FA3EE101203CE142F20700B84236DBB84200F0098141F20200B8421BDB5E
:20534000B84200F01681A7F21D40002800F02781A0F2E470002800F01E81801E00F0188152
:205360002A3800F01081363800F00981A0F29E30002800F0018151E0401C381A00F0F68023
:20538000801F00F0F080B0F57F7000F0E880A0F6FC30002800F0DF80801E00F0D9803DE0E5
:2053A0001030B84216DBB84200F0B2800838381A00F0C880401E00F0C280401E00F0BA80C4
:2053C000401E00F0B280C01E00F0AB80401E00F0A48023E0401D381A00F09780401E00F0DB
:2053E0009080401E00F08780401E00F081804DF6E231401A1F2811D8DFE800F0767210105A
:205400006D6965605D5956524E4B10104710433E3910342E102A25211D1018120125C2E0B8
:20542000B068F168326904F008FFBBE0307AB17A08F05AF9B6E0307A04F0EFFFB2E030893D
:2054400005F002F8AEE0307A718908F049F9A9E0307A08F041F9A5E03089B17AB28905F0F3
:2054600005F89FE0307A718908F032F99AE03089F16808F029F995E03089B17A08F020F9D9
:2054800090E0308908F018F98CE0307A08F010F988E008F009F985E0308908F001F981E0F0
:2054A000B06808F0F9F87DE008F0F2F87AE0307A08F0EAF876E008F0E3F873E0307AB17A7D
:2054C00008F0DAF86EE0307A08F0D2F86AE0B06808F0CAF866E0B068F16808F0C1F861E083
:2054E000307A08F0B9F85DE0307A08F0B1F859E008F0AAF856E0307A717AB27A04F056FFBE
:2055000050E0307A04F05BFF4CE008F099F849E0B068F16808F090F844E0308904F031FF93
:2055200040E0308908F084F83CE0307AF16808F07BF837E0307AF16808F072F832E008F00E
:205540006BF82FE008F064F82CE008F05DF829E008F056F826E0B06804F08AFF22E0308987
:2055600008F04AF81EE008F043F81BE008F03CF818E004F058FE15E004F096FF12E0B068CF
:2055800004F026FF0EE03089B17A08F029F809E004F038FE06E0B06808F01EF802E030894D
:2055A00008F016F80546304607F0B6FE009404982B4639465A4607F061FA02E0304607F018
:2055C000ABFE039880F4004080B205B0BDE8F08F2DE9F843DFF80C570446286889469046BE
:2055E0001E46002708B1112033E05EB1212004F0B7FF317E814205D3222004F0B1FF317E4A
:20560000884201D2022024E0782007F075FD286008B913201DE07822002107F06FFF29689C
:205620004F7028680470286880F802902868011DA1F800804E60CF6180F8247014B100F0A7
:20564000C0F907462968012048700FB100F0E0FA3846BDE8F28338B5DFF888562B6800245F
:2056600033B193F82420022A1CBF032A042A01D0122032BD9A888A4201D0022032BD01460C
:20568000102203F10C0007F0C2FE28681021353000F0DCFC286800F1250200F135010C3028
:2056A00000F00DF92868417802781AB103290DD1022107E0042902D10221417006E003296C
:2056C00004D10521417000F092F90446204632BDDFF8101688607047DFF808164860704714
:2056E000DFF80026126832B19288824203D1012908BF00F08DBA70471720AEE270B586B09D
:20570000044600208DF80000A0680578691E0A2939D8DFE801F006060D1115191D212529AE
:205720002D0001A904F0DDFB122824D106202BE001A904F049FC1EE001A904F061FC1AE090
:2057400001A904F074FC16E001A904F088FC12E001A904F0A1FC0EE001A904F0C7FC0AE0BD
:2057600001A904F0CEFC06E001A904F0E1FC02E001A904F0F6FCD8B9608805F01DFC07263A
:2057800028B9082612E007208DF8000013E0027BDFF85015082A0CBF8968496831B10B68BC
:2057A000190003D001AA2946984706468DF800609DF8000020B1608800A900F005F801E00E
:2057C00000F060FB06B070BD38B50C46DFF818352246022104F0D3FC0546207800F03DFAE0
:2057E000284632BD70B5DFF8FC440546206800280E463DD08188A9423AD1417806292FD1CD
:20580000017809B381684969026ACB0704D5137BDB0748BF072113D4C1F34003002B1FBF1B
:20582000D368C3F34003002B092109D1C1F3800100291EBFD168C1F38001002902D00B2135
:20584000417007E0A06800E0606818B14068010018BF804720684078122816D1002004E08B
:20586000112905D106B13226304600F0F6F90CE03EB9284605F0A0FB18B1017941F010014E
:20588000017129463046FFF784F9012070BD10B5DFF85044206888B1007800280CBF6068CC
:2058A000A06818B14068010018BF804720684078122803D1BDE810400020CEE110BD2DE9DB
:2058C000F34FDFF8206430688DB0904608B912203DE0808805F070FB050008BF142036D002
:2058E00009A800F0E2F93068017871B1D0F8209004F09BFF0446002004F09AFF95F805A0CA
:2059000009AE074605F1060B0BE0066A04F08DFF8246002004F08CFF6C790DF12409834661
:20592000AF1D07A9484604F085FA05A9304604F07DFACDF81080CDF80CB0CDF808A0019780
:2059400000940E990D9805AB07AA00F0F8FA0FB0BDE8F08F70B5DFF88C530446686886B016
:2059600000281CBF006800280E461BD030788DF8040070788DF8050002A8B17800F089FB6B
:20598000F0786B688DF80C0001AA7068049001211B682046984728B18DF8000000A960884B
:2059A000FFF712FF06B070BD38B5CE4CA46834B1A5682C0003D0049C0094A84732BD0220C5
:2059C00032BD1FB500F031F870B100A800F06DF9216888880978002914BFC44BC44B00AAEE
:2059E000072104F0CCFB00E0012004B010BD1FB500F01BF800F12501102200A807F007FD7F
:205A00002068BC4B0AE01FB500F00FF800F13501102200A807F0FBFC2068B74B808800AA17
:205A2000112104F0ACFB04B010BDAE4C20687047F8B5AC4F04463868006A0025002840F066
:205A4000AD80102007F058FB39680028086200F0A3808E681022214607F0D9FC38680178E5
:205A6000002973D1026A12F80CCF06F114010CF0010C0B6803F00107674518BF00275B08D8
:205A800047EA43030B605F08D2F800C04FEA5C0C00F087F818BF002723F0020343EA470396
:205AA0000B609F08D2F800C04FEA9C0C00F079F818BF002723F0040343EA87030B60DF08E7
:205AC000D2F800C04FEADC0C00F06BF818BF002723F0080343EAC7030B601F0AD2F800C097
:205AE0004FEA1C2C00F05DF818BF002723F4807343EA07230B605F0AD2F800C04FEA5C2C62
:205B000000F04FF818BF002723F4007343EA47230B609F0AD2F800C04FEA9C2C00F041F867
:205B200018BF002723F4806343EA87230B60DF0A1268D20A07F0010702F00102974218BF48
:205B4000002723F4006242EAC7220A60617800291EBF71780029052119D16168C1F3800127
:205B600021B9B17C490758BF012110D50178002919BF31782278327821780529B8BF052ADC
:205B800008DA0FF28C1302EB8202D218895C2030017104E0182502E0132500E011252846C2
:205BA000F2BD07F001070CF0010C674570470A46524B15E010B586B00446ADF80010104699
:205BC000014608220DF1020007F021FC4C4B00AA0B21204604F0D3FA06B010BD0A46494B45
:205BE000112104F0CCBA1CB58DF8001004461046014606220DF1010007F009FC424B00AA52
:205C00000821204604F0BBFA13BD0A463F4BE7E710B5FFF70AFFE0B1006A08B107F05CFB0E
:205C20002068806E08B107F057FB2068C06E08B107F052FB2068006F08B107F04DFB2068C2
:205C4000406F08B107F048FB206807F045FB00202060BDE8104000F023B9224900B50968F1
:205C600085B081B14A6F03920A6F0292CA6E01928A6E00920B7F8A880978FFF710F805B03D
:205C80005DF804EBC4E705B000BD16490968102000291CBF0A6A002A06D0896821B1087EE2
:205CA000117A814238BF0846704738B504460D48006800281CBF8568002D0CD0287820707D
:205CC00068786070201DA97C00F0E3F9287E20726869E06031BD2046BDE8384010220021D9
:205CE00007F00CBC6048002017A001002D9E0100359E0100B79F0100DF9F01004DA0010001
:205D000075A00100BDA00100CFA001001FA1010001010201020101020102030304010301C1
:205D200001010101030302010300000038B5614D0446286808B1102032BD07F045FC58B9BD
:205D4000122007F0D9F9286020B1002101704470002032BD132032BD012032BD38B5040077
:205D60000D4618BF002D01D1022032BD032100A800F06CF900A82A4600F027F8040004D1C8
:205D8000032200A9E81C07F042FB204632BD30B504000D4618BF002D83B001D102203EBD46
:205DA0000322E91C00A807F032FB00A801AA00F00CF848B90322294601A807F09DFA0128B1
:205DC00001D100203EBD01203EBD817801F03F0141F040018170204600A980E030B50C4687
:205DE000002818BF002C8DB0154600D00DB9022011E00146102200F06FF81022214604A822
:205E000007F0D2FA00F099F80446102208A9284607F0CAFA20460DB030BD70B5254C0546F7
:205E2000206870B3A5B9027862B90822801C07F0EEFA07F0C9FB18B92168012008701FE072
:205E4000012503E008220A3007F0E1FA2068B8B1122007F09DF906000DD0C120307075700A
:205E600010222068811CB01C07F0D1FA20684078314606F0A7FD206807F02EFA00202060A5
:205E8000012070BD80B5202004F06AFB38B1024609480078BDE80840012107F05BB801BD15
:205EA00005480078012107F06FB80248006800B101207047A0480020BD48002070B58CB014
:205EC00000F020F800F006F8280A8DF81E008DF81F50ABE01022214600A807F065BA70B5FC
:205EE0008CB000F00FF8FFF7F5FF032229460DF11D0007F059FA00F020F8044603220DF117
:205F00002D0198E004460D4616463022002100A807F0F4BA70B58CB0FFF7F4FFFFF7DAFF09
:205F200000F08FF800F009F89DF82F109DF82E2001EB022131800CB070BD00A8C2E0F0B5AA
:205F400095B005460C4616461F463022002108A807F0D4FA1022294608A807F025FA10221D
:205F6000002100A807F0CAFA07223146FFF7B4FF072239460DF1070007F016FA1C9901B139
:205F800001218DF80E101A9901B101218DF80F101022002104A807F0B1FA1B99062205A8E7
:205FA00007F002FA1D9906220DF11A0007F0FCF9102221460CA807F0F7F900A90CA800F08B
:205FC0001AF808A800F07EF80446102210A90CA807F01DFA04A90CA800F00DF808A800F0AC
:205FE00071F805461E98102210A907F0DDF945EA040015B0F0BD10B51022037811F8014B13
:206000006340521E00F8013BF7D110BD70B50C468CB0154601461E461022FFF75DFF08223D
:20602000214604A807F0C0F900F00BF8FFF785FF0446102208A9304607F0B6F920460CB0C5
:2060400070BD0822294606A807F0AEB970B504460D46002609E007F01FFA010A3155761C6A
:20606000F6B2AE423CBF3055761CF6B2AE42F2D370BD006800F00301C0F3800241EA8201AD
:20608000C0F3C00241EAC201000941EA0010C0B27047026861F3010202604A0703684CBF46
:2060A0000422002223F004031A4302600B074CBF0823002322F0F8021A43090942EA01119B
:2060C0000160704700F1200200F1100107F078BA2DE9F0470700144614BF002C022088B063
:2060E00089463FD009F10405A8B207F005F8060036D004F089FB80464A463946301D07F0D4
:2061000053F986F803804FEA1827B7704FEA184986F801904FEA186A86F800A004F071FBB1
:206120000146102203A807F03FF90820009001ABAAB2314603A800F085F805000DD184F85E
:206140000080677084F8029084F803A0082201A9201D07F029F904F05BFB00F070F800E00F
:206160001325284608B0BDE8F0872DE9F04F89B015001CBF129F002F80460E469A4615D068
:2061800004F01AFF040008BF142055D03878797800EB0120B97800EB0140F97800EB0169FE
:2061A000606A484504D310F1010F01D0022043E026B12079800758BF01203DD508220021FE
:2061C00001A807F09BF90AF1040B1FFA8BF006F093FF060008BF13202ED052462946301D13
:2061E00007F0E2F804223946304607F0DDF8102204F1140105A807F0D7F80820009001ABD4
:206200001FFA8BF2314605A800F01CF8050010D1082201A903A807F0C7F80822391D03A87A
:2062200007F06AF8012811BF012549464046FEF7DAFA00F004F8284609B0BDE8F08F30465B
:2062400007F04AB82DE9FA4F834685B0154600F0CFF8814600F0CCF8B9F1000F804608BF15
:20626000132400F0B680B8F1000F08BF132400F0AD8000F0BDF800F0BAF8BAF1000F0646A1
:2062800008BF132436D00EB9132430E01022002107F034F9524631465846FFF717FF0400B8
:2062A00025D19AF800000FF27C17000604D44946504600F0AAF808E03146504600F0A5F8AB
:2062C0004A463946304600F096F899F80000000604D44146484600F098F808E031464846CA
:2062E00000F093F842463946304600F084F8504606F0F2FF0EB1FFF7A2FF002C66D100F014
:2063000077F800F074F8BAF1000F064608BF132459D00EB9132453E005F10F00C11000EB93
:20632000117007033F1405F00F0102D10127002202E04A1E9241D20F781E059B000503EB36
:20634000104012B222B13246494600F054F810E000AB8A42B8BF155C02DB0CBF8025002552
:20636000D554521C102AF4DB3246414600A800F042F810220021504607F0C0F800250BE004
:206380000598290189B2091800AA504600F033F800F029F804466D1C2DB2781E854201DA84
:2063A000002CEDD064B900AA3146504600F023F800F019F80446109A0698514607F027F8D5
:2063C000504606F089FF0EB1FFF739FF484606F083FFB8F1000F1CBF404606F07DFF2046C5
:2063E00007B0BDE8F08F524600A958466EE68246102006F081BE30B500231C5C5D5C6C407D
:206400009C545B1C102BF8DB30BD10B500220F231C5C42EA44025A541A5CD2095B1EF7D5D3
:2064200010BD00000000000000000000000000000000008710B586B01C460823ADF80030AB
:2064400001901B23ADF80230039104922068DFF830160968029000A888470299216006B07B
:2064600010BD00B583B000F019F88DF80400172105E000B583B000F011F801901E21ADF86A
:20648000021000A8DFF8F815096888470EBD00B583B000F003F801901F21F0E70821ADF80A
:2064A0000010704700B583B000F0FAF9212000F00AF89DF804000EBD80B500F0F1F926205E
:2064C00000F001F802BDDFF8B8150968ADF8020000A80847DFF8AC0506F002B8DFF8A805A5
:2064E00040F6020101804FF40162002141804160816001730121417300218173DFF88C1501
:206500000A8048600022DFF87C054A808A608A8108614A61704710B5DFF8740586B00021D9
:20652000C160C16001600160DFF85C45207E032805D11020FFF7ABFF0020FFF792FFFFF7D3
:20654000B1FF0028FBD0FFF7B7FF00F060F940F60A0000F06AF9206B0490002000F05DF98B
:20656000607E012803D10020607600F05DFA07F06BF92062207E012805D11020FFF787FFDD
:206580000020FFF76EFF0020207606B00120A07610BD2DE9F843DFF8FC44DFF8FC542068F1
:2065A0008047074600F080F9032803D029683846884732E02968DFF8D064307E012802D12A
:2065C0003846884758E001203076384688470020DFF8C874DFF8C814DFF8C884DFF8C894E6
:2065E00070637861F86040F2FF70086006F0E4FF002038613861F861F861EFF311808006B8
:206600000DD502203076DFF87C0405F069FFF9F781FC00F034F8FFF77EFF00202DE00020D3
:206620007080DFF88824DFF8880400883082DFF88404C06A81681278096802EB4202511843
:20664000B1F801107182406870611020FFF711FF0120FFF706FF00F012F8386860B9206887
:206660008047716B41B9DFF850147163DFF81C1439602968884778680120BDE8F283002231
:206680004946404606F09CB838B5EFF311808006DFF8F4431BD5A07E03282AD1207E0128AC
:2066A00010D103202076606B010022D0DFF8E0130A689207FAD56FF003020A608047002029
:2066C000606316E002202076FFF763FF11E0DFF8C403006880470546A07E032804D1207E2C
:2066E000012818BFFFF755FFDFF8AC13096828468847A07E0128FCD1BDE8314081E138B593
:20670000DFF89003DFF8B453006880470446287820B10020FFF7A5FE002028702046BDE8CB
:206720003440DFF8741309680847DFF87403016821F0020141F4007101600321DFF8800377
:20674000816041F2300141610121C160502141610121C1604FF4CA6141610121C160016005
:206760007047F0B500F087F9CB4E85B08047044600206863A87E032844D007F065F8296AB7
:2067800007F06EF8E9694018696AE861814208D3CC480088B0F5006F1CBF40F2024188426E
:2067A00024D12F6B06F02AFA0020E86100F02FF840F6090000F039F800F02FF80498696ACA
:2067C000286387422CBF381AC01B0328A7BFBE48401801F59C4020300028BC4948BF0020E8
:2067E000884268620ADBBA48686207E0B9480021C16041608160816001600160FFF795FF7B
:206800000320A87620463168884705B0F0BDB248016841F00201016070478DF80C000120A6
:206820008DF80D0000A805F071BBADF800000020ADF802000190029070473EB506F0DEF9F7
:20684000A649012008604FF44220FFF712FE00F0D8F8FFF743FEFFF725FE0028FBD0A04D25
:20686000894CFFF729FE2D680FF26111642004F12C030022B0FBF5F0FFF7DCFD00F010F8FD
:206880001820ADF802007E490FF265100968019004F13800029000A888470320A07637BD77
:2068A0000820ADF80000704710B57A480068804775498C7E784909688847204610BDFEB5EF
:2068C0000446714D60680021A962017B01F00F0102294CD18068A06040F61D478148007834
:2068E0000938052832D306F09BFF06001CBFB068002835D006F0A8FF0146B06806F0B0FFCE
:20690000A0F5C871784A914220D28608BE421FD3FFF7C6FF2720ADF802004FF47A70B6FB1B
:20692000F0F000F04DF802980FF2A101301A6F4EF668C838801B6A4E366805F12C03002268
:20694000B0FBF6F0FFF776FDAC6209E0642600E036B1606805F0C4FD00F053F8BE4214D355
:20696000FFF7A2FF032810D0FFF7C9FEF7BDFFF79BFF032808BFFFF787FE06F065FFA060AD
:20698000606805F0ADFD00F03CF8F7BD30B505464048006883B0804704463B48816AA942FB
:2069A00007D1FFF77BFD1C21ADF80210C06A00F007F800F001F837BD374909682046084701
:2069C0002F490968019000A80847704700B583B0FFF766FF2220FFF776FD00280CBF019815
:2069E0000020032814BF012800F028F807BD0000052808BFFFF7CDBD022808BFFFF7B1BEB2
:206A0000704738B52348244D0068804704462B48017821B9012101700120FFF722FD29685D
:206A20002046BDE83440084780B506F0F9FE20B1BDE80240406805F053BD01BD38B506F060
:206A4000EFFEB8B100F017F88047044601206876FFF72AFF032808D000200F4968762046F3
:206A600009688847FFF7E0FF01E0FFF7A5FFBDE83140C6E731BD0748034D00687047000017
:206A80004848002001010E04DC45002020480020101004404C480020504800200010044045
:206AA000000004600200008000048000B94C0020944C002058E0010017650100BC4800206D
:206AC000004104400A4F0020E0B1FFFF01350C0000350C000810044000200940D0210840A8
:206AE0002C460020B84C0020711EA107E446002080B54FF48030FFF7BCFCBDE8014006F0AD
:206B00005BBE4FF48030C2E470B5DFF87466054630680C4608B1112070BD00F0D1F817D001
:206B2000DFF86016896800291CBF0978002901D1102070BDC00706D404F06DFBDFF8481608
:206B40000978884206D32078032818BF022801D0122070BD0C2006F0CFFA306020B305705A
:206B60000021306841700A222146801C06F04FFC00F030F9040002D000F0E6FA15E0DFF8B0
:206B80000C060078032810D11D2003F0E9FCDFF80016088048B1DFF8FC0500784EF66022C6
:206BA000042106F0E7F800E01324204670BDF8B50C46DFF8E41509781546052211421E46A8
:206BC0002AD001F00501214326D0012CDFF8B41502D18F6807B301E0CF68EFB1202D01DA39
:206BE00015B10EB90220F2BD08701F220021781C06F084FC2A463146781C06F008FC3D7031
:206C0000284624B1791CBDE8F44006F0D1BC791CBDE8F44006F0C8BC1220F2BD38B5DFF8B3
:206C20006045216809B9122032BD0978814201D0032032BDDFF85C552878022106F0A4F93E
:206C4000DFF85815002008800421287806F09CF9DFF83C15002008800320216848700020A4
:206C6000BDE8324006F09CBC10B5044600F028F882B001D1122016BD1CB1207805F080FCB1
:206C800008B9022016BD6078801C202812DA207800F0BAF908B1182016BD00A90DF10100EF
:206CA00000F0BFF99DF8000030B161780818801C202801DB0B2016BD204600F072F916BD6B
:206CC000DFF8D404007805210842704780B5DFF8C81409780522114201D1002002BD00F0E2
:206CE00093F900B1406802BDDFF8AC1409780522114218BF00F06FB900207047DFF8980425
:206D000000780521084218BF00F0A6B91220704770B5DFF87044A06818B106F0DDFA00200E
:206D2000A060E06818B106F0D7FA0020E0600521DFF86454287808421CD004F1100004F097
:206D40002DFB287800260521084211D000F0DDF9A06060B100F013F800F0D7F9E06010B161
:206D600000F00DF804E0A06806F0B6FAA6601326304670BD002004F011FB002070BD2022FB
:206D8000002106F0BBBB10B58188012442F20603CA1A05D0921E012A0DD9921E05D016E041
:206DA0008068007800F054F803E08068007800F060F804460CE0806842F208029142017804
:206DC0000CBF01220022104600F09EF800E00024204610BD2DE9FF41DFF8A443206898B3A9
:206DE000857804F018FA28B10A2003F0B9FB06460B200DE000F0B1F928B1062003F0B0FB4B
:206E00000646072004E0082003F0AAFB0646092003F0A6FB8046DFF87403077807B10127DF
:206E20002068011DC07803F095FC2168CA7A03923B468A7A0292091D019100902A46414636
:206E4000304606F0A9FB00E0012004B0BDE8F08180B5DFF82C13096849B118B901204870F7
:206E600006F09EFB08B100F053F9012002BD002002BD2DE9F041C24D80462868002841D0EA
:206E80004078C74E01282DD100F067F9C14FA0B1012003F065FB0446422C0AD338784EF650
:206EA0006022022105F066FFBC49A4F13C0008800CE04FF47A70444302E003F051FB04466A
:206EC00024B138782246022106F044F8296802204870307818B9404600F01AF911E00020F2
:206EE00030700EE0307860B9032006F051F930B1D021017080F80180042100F01FF900F087
:206F000023F90120BDE8F08170B59E4E04463078FF280D460FD0042006F03AF958B1D0217B
:206F20000170457002218170C47001463078BDE8704005F047BD70BD38B501469048954D8B
:206F400002682878954C01291DD1218811B1944B1B7823B122B3BDE8324010785EE63C2960
:206F6000A8BFA1F13C000CDA022106F00DF820884FF47A7101FB00F22878022105F0EAFF73
:206F80000020208031BD5AB183490978490707D5022105F0F9FF00202080BDE83140D3E026
:206FA00031BD38B50446082006F0A6F8050010D00822FFF7E5FE7348416831B100E001469B
:206FC00008680028FBD10D6000E045606C60002032BD132032BD10B56A4B5968002201E020
:206FE0000A46096871B14C6824788442F8D14C680868002A14BF10605860084606F06CF9DD
:20700000204610BD002010BD5E49496800E0096829B14A6812788242F9D1084670470020DE
:20702000704770B5002202700A70564B5B6803E0AD1C2C1904701B686BB15C6865782AB97A
:2070400004782E19B61C202EF2DB01220C78AD1C2C190C70EFE770BDF8B54F48007800246C
:207060000521084201D11220F2BD464DA86810B900F04BF8A860E86810B900F046F8E860B7
:20708000A86800281CBFE968002901D11320F2BDFFF775FEE8682022214606F02FFA6E6858
:2070A00012E09B1C88185918401C117071684978491C0170716809784170801C71684A7887
:2070C000496806F0A4F936689EB144B9AA687068117843785F18BF1C202FE2DB01247368F6
:2070E000E9685B780A789B1C50189A18401C0A70DCE7AA681078511C06F05AFAE868411C82
:20710000007806F051FA0020F2BD202005F0F4BF38B51B4D0446286878B1032006F038F85E
:2071200028B1D02101704470032100F007F8002C1CBFBDE8314000F007B831BD817001465B
:207140002868007805F03EBC10B50D4C206818B106F0C2F80020206010BD80B5094880683E
:2071600058B10278431C00A9012005F013FA20B10078C00701D5012002BD002002BD0000BC
:2071800088480020B44600207C4700206646002068460020F446002065460020AC4800202F
:2071A000674600202DE9F0410FF224102249272250F8043B50F8044B50F8045B50F8046B56
:2071C00050F8047B50F804CB50F804EB50F8048B41F8043B41F8044B41F8045B41F8046B83
:2071E00041F8047B41F804CB41F804EB521E41F8048BDDD142688368006808604A608B60C7
:20720000BDE8F08110B50D4C0D4800F025F810D168220FF254010B4805F080F80A480B49B1
:2072200001600B490162FFF7BDFF0A4800F014F800D0002010BD000000C000210010044044
:207240004100070604040021B0030021050400214504002101000706206060680028FCD005
:207260006068012870470000F0B5174C40216118C878022805D00948002101600849884752
:20728000F0BD256E074E3560600728432066276824600E48804727603560F0BD2C110440F2
:2072A000A56500002840044010B5074CA17D002905D10121A175480204493E398847206846
:2072C000002800D0804710BD540200218B390000546100007F140200060005000F0008007B
:2072E0004800520080FF3F0000000000000000000000000000000000304000400140034002
:2073000007400F404F40CF40CF41CF43CF47CF4FCF3FCF2FCF1FCF0F00000000000000000B
:2073200000000F00080000003F00000040003F000000040068000E00DC00060043001A00BF
:20734000050000000000020000000000000000000400C00000000400C00000000700000097
:207360000000000000000000000000000000000050C00091007070C00091007082312100F7
:20738000319110B10070018101B100A18231329110B101911110418141226340F10600700C
:2073A00051C0019130181039833108D01831416F3100319110B1831414166F680070251023
:2073C00050C00091F4C340C12014036F311041045082F0228440512622C082312100319191
:2073E00010B163393110410482C082312100319110B163393110A2C082312100319110B17B
:2074000050101531051405920070536452C0311031066131C102566412C131102139710671
:207420005131E1025664007051C0019101CCE2C05664536411C1C2C0566454B0007154A0C3
:2074400064B0F0800022B54011C122C1566451C00191E2C0823160820200329110B100C3FF
:20746000C86853644012B09032B000C3CE6840C2D0688012B09032B00070536401C122C1FE
:20748000566401C1C2C0566453829D64C012B09032B00070536472C281C0566422C111C15F
:2074A000566402C011C1566462C031C3566462C311C1566402C311C15664538253399D6490
:2074C000E2C35B641122F84042C281C8566452C211C1566472C2E1CE566402C281C85664D2
:2074E00002C201C85664B0C00C690070536442C201C8566452C211C0566472C2E1C0566484
:2075000002C001C1566462C001C3566422C101C1566462C301C1566402C301C15664538277
:207520009D64007002C1623101C0A080001E3241101A34612010101A136F236E1116121697
:2075400034690070E092D08200223B45C0B2007000000000000000000000000000000000D6
:20756000000000000000000000000000000000000000000000000000067305720B720E721E
:2075800050B00071818060B050A09280F0EFF19202933A65412278458080F1C110043016A5
:2075A00001110114016C8B618C618D618E618F61906191619361956197619961706273622B
:2075C0009180F2C0210421318280422A1214321601112114016CA661C761AC617362A661C9
:2075E000C761AC6173629B619B619B619B619B619B61AC649B61D5649B61E2649B610E65A3
:207600009B612A659B618280E0DFF2923A65B0B0A261B1B00673057230B05861D0CF3A6574
:2076200084C203C0C0C36864907850916078103161781014009250784031617810004031CE
:20764000717810001092B0786092817821923078403141781000309210C0F0919B6154A0E4
:20766000F0805022CF45408000226646C76100C86091598150B0918041222E46C0CF3A65B5
:207680001282823182394239281077641282F11212042F101F312F1440C120140D6F6D3984
:2076A000DE10F4C34E0482C082312E006D39A2C082312D001A828A392082803180390BC092
:2076C0000B18AC7830824039021011C0013010C00118021882312100C126919103B013B0CE
:2076E00063B053B003823914418001226646B481C491D5819518B51C1C4EC51C544A6591D5
:20770000F08010220C422C623D9110B13E9110B165910F925981F914AB18BC10F0805022DD
:20772000C74110222C460C62B0CF3A6563B030820010F2C02004021011C0013010C0011869
:20774000021882312100C1269191919113B003B063B053B064B054B000714180012266466B
:2077600063B064B0F0805022C741B181C191D1819118619131B04462128282318239423983
:207780002810776459810582591420820BC00B18AC7880C0007163B0626A0C6201826281F0
:2077A0008231823DA0EFF19202933A6503A09B61A28077649B6150B000719B61F8B5054614
:2077C0000C46AF892FB3AA68167830060FD50D2F1FDB0C3FBFB2B81800903B46688801219E
:2077E000FEF7C3FC002814BF0220012000E000202070B00900F00100607006F03F00A07048
:20780000781EA08080B208B1A868401CA0600020F2BD0120F2BD0A7802704A8842704A8872
:20782000120A8270097912E104290AD1017811708378417801EB03215180C0781071002055
:2078400070470420704705E0022B00D1CFE00420704700BF0A8802700988090A41700220EF
:207860007047022906D10178407801EB002010800020704704207047E0E0042B00D1EEE042
:20788000042070478A7802708878098801280CBF042012204843401C80B2704710B5E1B197
:2078A0000378491E012B89B207D14B0801EB93739B08B1EB830410D108E0022B0DD1122393
:2078C00091FBF3F3122404FB131131B99BB223B110F8011B9170138005E1042010BD10B57E
:2078E0000C46022200F043F8001D611D05F08FFD2089801D80B210BD70B51E46062E14466F
:2079000019DB049D2078617800EB012028800222A078E17800EB01206880211D022028712B
:20792000681D05F074FDB01F288180B200B1A01DE860002070BD042070BD08888004000C3E
:2079400070470323194203D1890801D0118099E00420704710B50C4600F009F8611D2279B3
:20796000001D05F054FD2079001D80B210BD218801702188090A4170618881706188090A92
:20798000C170704710B5029C062B104612D1022121714278017801EB02212180C278817867
:2079A00001EB02216180011D2279601D05F02FFD002010BD142B08BF1021E9D0042010BDB2
:2079C00077E010B559B103785380491E022B89B205DB91FBF3F403FB141101B981E00420AF
:2079E00010BD37E7022B00D101E0042070471078517800EB012000990880002070470888FD
:207A000070473CE010B5022B0FDB029C207261721078517800EB01202080981E608080B2EF
:207A200000B1901C6060002010BD042010BDADE009B9002070470420704700BF0A88027087
:207A40000A88120A42704A8882704988090AC17004207047042B00D101E0042070470098BE
:207A60001178537801EB032101809178D27801EB02214180002070470888704700BF118090
:207A800001B9002050600020704788884004000C7047D80707D45908022904DB00988180B0
:207AA0000260002070470420704708887047E6E700BF4A8809880270514389B2481C80B2A5
:207AC000704710B559B103785380491E042B89B205DB91FBF3F403FB141101B901E00420CC
:207AE00010BD1480401C5060002010BD14E010B5042B0EDB00F062F8D478917801EB0421AB
:207B00004180191F818089B201B1111D8160002010BD042010BD00BF0A8802700A88120A20
:207B200042704A8882704A88120AC2708888001D80B2704710B5042913DB03784478091F5A
:207B400003EB04231380C4788378918003EB042389B2002914BF001D0020906053800020C9
:207B600010BD042010BD0978017001207047012B04D1009910780870002070470420704731
:207B800009B9002070470420704700BF0A8802700A88120A42704888801C80B2704710B534
:207BA000022B09DB00F00AF8991E418089B201B1911C4160002010BD042010BD029811780E
:207BC000547801EB04210180704709B900207047042070472DE9F04784B080460C9D0C46DA
:207BE00091469A4655B91720FBF7B6FA0126050005D11324204604B0BDE8F08700262846E4
:207C0000012700F8019B14B15146A047471C5FEA09600DD51021404603F0FCF9D0B9BFB2D5
:207C20007A1939462846FEF753FA04000CD10C370420ADF800000195ADF8087000A94046B3
:207C400001F01EFD0400D5D0002ED3D0284604F065FFCFE71924F7E730B5022918BF1029E7
:207C600085B00446154603D1022B18BF102B01D0002017E0994204D10A46294605F03CFB94
:207C800010E0102900A906D1284600F00DF8102200A9204604E000F007F8102200A928467B
:207CA00005F02AFB05B030BD38B504000D4618BF002D0BD010220FF2A401284605F0A7FB08
:207CC0002078287360786873012032BD002032BD30B504460D0018BF002C85B014D0102215
:207CE000214600A805F093FB00A80021818110220FF2680105F000FB012805D1207B287069
:207D0000607B6870012000E0002005B030BD38B504464FF6FE7084420D460BD0172D09DBE7
:207D200001F06CFEA84205D329462046BDE8344003F09DB9012032BD80B54FF6FE7188422C
:207D400004D003F0A2F928B9172002BDBDE8014001F054BE02BD704700207047FB349B5F8B
:207D60008000008000100000000000002DE9F04F0E46DFF84815096883B082460AF10608A1
:207D800098F8002016F8010B01EB8212141D13280AF1E3070AF166050AF2031902F1240BA8
:207DA000DFF81C1500F20C82DFE810F014005D001E017E000A020A02DE00FA01EE00F40093
:207DC000E100EB00F8000A020A0234010A0225011401010216F8010BA877022231460AF179
:207DE000860005F0D5FB014602220AF1880005F0CFFB014602220AF18A0005F0C9FB01469B
:207E000002220AF18C0005F0C3FB0146A87F4000A8770222288C40002884688C4000688453
:207E2000E88C0001E8840AF1820005F0B1FBA88BB8F80210401A80B247F6FF71884229DA48
:207E4000A88C698C401C49004843E98C884228BF3B2020D20120A8760020A8F8180001201E
:207E60008BF81800B5E1052231460AF1610005F08FFB014602220AF1900005F089FB0AF1EE
:207E80008E00B8F802204188891A89B247F6FF72914201DB2820A8E0012101700020A8F85B
:207EA00018008BF8181094E1B87DC00708D41A20B873787B012808BF0D213BD00D2182E1A0
:207EC00000202870A87108220120787431460AF1AC0005F05DFB014602220AF1B40005F020
:207EE00057FB0AF1A40401460822204605F050FB06460821204605F047FB0AF198040422A7
:207F00003146204605F044FB0421204605F03CFB0AF19C0005F034FB0AF1940005F02CFB33
:207F2000DFF8A003018841F080010180787B012806D10421504603B0BDE8F04FF7F754BCC8
:207F4000287C012804BF687C0F280BD15046F7F72CFC0421504605F057FC0F208BF8020037
:207F6000FD2130E104212EE10120F87331E100202870A87138700B21012078730020787047
:207F800021E10120387424E100F025F95046F7F737FAB8E000F01FF902200FE1B97F012936
:207FA00000F00E8116F8010B89F80100022231460AF5837005F0ECFA014602220AF58470E0
:207FC00005F0E6FA0120B87799F80000002811D10C21F8E0B87DC00658BF122040F18E8059
:207FE0005046F7F754FA8EE0307889F80900012089F80800EDE030788BF8000070788BF802
:208000000100287C012804BF687C0F2801D101206071DEE0B87D810707D4112108426CD0E2
:208020000F208BF800001A207DE03078717800EB0120208140F67B43B078F17800EB012028
:2080400060817179307900EB0120A081F179B07900EB0120E081307A2074B17A707A00EB41
:2080600001206082317BF07A00EB0120A082B17B707B00EB0120E082317CF07B00EB012010
:208080002083B17C707C00EB01206083317DF07C00EB0120A083B17D707D00EB0120E08362
:2080A0002089811F99423EBF61898E1F9E4221D281421FD3B4F80CC0BCF5FA7F1ADAE3897E
:2080C000A3F10A0E40F67746B6453FBF0CF101064FEA410E0EFB06F6B6EBC30F0AD21832DE
:2080E0000192628A0092237CB8F80220F7F782F801281BD1B87D400710D40F2089F80A0067
:20810000504605F025FB002863D103B0BDE8F04F6D4800784FF4804103F062BF0F208BF8CA
:20812000000011211E208BF801004CE060896884A089A884E089E8840220A8770020288413
:20814000B8F82E00C01DA883B8F82C10688C884202BFA88CB8F82E10884202BFE88CB8F8FD
:20816000301088421AD0287C012804BF687C0F2806D0687D20B10F208BF80200FE2122E0FF
:20818000FC21504605F040FBE0890090A3896289218998F8000001F0A5FD1AE0102112E002
:2081A00030780E2809D00F2804D0122811D1002020700EE0012020710BE00320787508E0AE
:2081C00089F80A000721504603B0BDE8F04F05F01BBBBDE8F78F00204218835D52781A404B
:2081E00000EB0A03401C082883F8F920F4DB70472DE9F0413548364F0068364C8047804621
:20820000002500260EE078684FF4907101FB06004179012904D1806E05F0AAF94519EDB2C3
:20822000761CF6B220788642EDDB2B490968404688472846BDE8F0812DE9F04781463020BA
:20824000002500FB09FA254F254C4FF00C08206808FB05F650443018002101710221206823
:20826000504430184171796920684A78504433182132DA806A1C531002EB93739B10A2EBA4
:20828000830208FB0202325048781F3080B205F0CBFA216851447218906008B1801E9060F6
:2082A0006D1C042DD3DB0F48006800EB09100022016042608160C260BDE8F08710480020D7
:2082C000D04E0020BE4C0020844C00204C480020B04C0020BC4C00205048002058E001005D
:2082E000104F00200C4F00207047704780B5DFF84405007840074CBFDFF83C050020FDF7CB
:20830000EBF9002002BDF0B589B004460D4616461022002100A805F0F1F8DFF820753868DE
:2083200050B38188A14204BF0178002924D1417806290DD100F1550200F1350104AB0C30D4
:20834000FDF764FEC0B9FDF7A0FC024604A924E0806E88B1028A112927D1964209D100F03E
:2083600033F8012805D1FDF790FC02463868816E13E03220FDF771FC204602F01DFE07005C
:208380001CBFB86A002819D0018A8E4216D100F01BF8012812D1B96A8A7E00A805F037F887
:2083A00000A9204605F0E0F80BE09642E4D100F00BF80128E0D13868816EEDE7204605F0DE
:2083C000CFF8012009B0F0BD00F112010822284604F092BFF0B5DFF864640746306885B010
:2083E0001546002480B9012913D1281DFDF741FEE9680291297A019100906B782A78798810
:208400000020FCF7EFFBCAE082887B889A4218BF082040F0C5800278012A08BF072000F0D5
:20842000BF80491E092956D8DFE801F005550A22B63F577487A0284600F0B8F80446AEE02B
:2084400010222946453004F0E2FF30684178042908BF03215DD000F1250200F135010C3020
:20846000FDF72DFAFDF7C3FA00B10824052061E010222946553004F0CAFF306800F155012B
:2084800000AA0C30FDF71BFA306800F14501102200A804F031FF012805D1FDF7B4FA002857
:2084A0006CD1062046E0042479E041780C2912D1C06E20B91C2004F01FFE3168C86630682E
:2084C000C06E40B100F06EF8FDF7DFFB3168C96E88760D202EE0072461E0C36E002BFAD0BE
:2084E00040780D28F7D1288818820822A91C03F1120004F08CFF306881684969C1F34022C0
:20850000002A1FBF026AD268C2F34022002A20D00E2129E041780E29DDD1006F20B9162028
:2085200004F0EAFD316808673068006F08B100F039F80F203168487031E041780F29CAD15A
:20854000006F0622691C103004F061FF306881684969C1F3802100291FBF016AC968C1F38C
:208560008021002916D01021417018E0406F38B9142004F0C1FD3168486708B908240EE0C8
:208580003068406F30B100F00DF83168496F4FF0FF300861002000E02878FDF75EFB204643
:2085A00005B0F0BD1022294604F031BF38B5FDF73FFA0024002844D1FDF703FA9F4D2868EC
:2085C0008168897CC90709D5016A097901F00301012903D1017F41F001010177286890F8DC
:2085E0002410022904D0032918BF042909D101218088FCF727FB00F02AF804202968487080
:2086000023E0012918BF05291FD102214170286800F108010A7F012A05D1102200210C30C1
:2086200004F06CFF07E009681022891C0C3004F0EEFE00F00CF8102128683530FDF706FD7F
:2086400003E018280CBF03240824204632BD2868017F41F00401017770472DE9F041774C05
:2086600020680178002940F0E3804778D0F80880066A062F2FD1D8F81410CA0704D5327B3E
:20868000D20748BF072730D4C1F34002002A1EBFF268C2F34002002A08D0092702F0D2F88C
:2086A000014620688088FDF799FA10E0C1F3800100291EBFF168C1F3800100290BD00B276D
:2086C00002F09FF8014620688088FDF79EFA072F4ED108208EE0072F07D0F8D3092FDDD006
:2086E0002BD30B2FECD031D3F1E7806E20B91C2004F002FD216888662068856E002DE6D0DF
:20870000FDF7C3FAA87610220021284604F0F6FEA97E21B11129BCBF2846FDF797FC04F04A
:20872000BBFE2882082105F11200FDF78FFC206880882946FDF73BFAC9E7816ED1B101F1EB
:208740001202098A8088FDF735FA13E002F06DF801270546012D0CBF00270025384602F0D5
:2087600067F80246206880882946FDF73CFA14E0082F0CD1D8F81400C0F3400000281EBF45
:20878000F068C0F34000002807D0092032E0092F08BF0A202ED00A2F0BD1D8F81400C0F381
:2087A000800000281FBFF068C0F3800000280B2020D1D8F81400C0F3002100291FBFF1684C
:2087C000C1F3002100290C2014D1C0F3402100291FBFF168C1F3402100290E200AD1C0F31C
:2087E000802000281EBFF068C0F38020002814BF102012202168487020684178072918BF43
:20880000082904D009291CBF0A290B2910D1808802F0D2FBBDE8F04100281ABFC08900EB2C
:2088200050024FF4FA7206480078022104F092BBBDE8F081654600200C47002060480020F1
:20884000BD48002010B5DFF82844207102F028FB30220021DFF81C0404F050FE207860B1F0
:20886000000104F049FC206138B1627821782272E1718A00002104F041FEDFF8FC13207A9D
:208880000978081860710006000D04F035FCE06088B161790A01002104F030FE0020FF224C
:2088A0006179C0B288423FBFE16801EB00114A72401CF5D301E060712072207903F023FC8F
:2088C000BDE810400FF2814002F010BB70B50C462004DFF89C5324D5287903F0B7FD06007C
:2088E0001CD03078902816D17078132810D1002005E0B26832F810205118A971401CB278BF
:20890000A979C0B29042F4D329B100F01AF802E0304600F01AF8304604F0FEFC84F40040D8
:2089200070BDE0070BD5F9F75AFD00281CBFA879002801D000F005F884F0010070BD002030
:2089400070BD2879012103F04BBB30B5054687B06C88294601A8F9F751FF0299002952D095
:20896000BDF80400052831D1BDF80C0004284CDB00A8F9F797FCBDF80200182819DABDF831
:208980000C10001D814210D19DF80000C007029805D5021D00A9204600F041F804E0021DD0
:2089A00000A9204600F0C8F878B32046FAF75EFB2BE00120ADF810001720ADF8120004AAA0
:2089C0009DF80110204600F0C5FF1EE004281CBF0628072811D1A7490C2202FB001030F840
:2089E000301D91B1807801AA2146FAF789F860B9BDF80400042810D00BE001A92046F9F7A3
:208A0000DCFD10B909E0012803D1A86808B104F085F80121204600F0E0FF07B030BD2DE983
:208A2000F0410E460446707888B09046FAF758FA012705007AD0002028713078012806D057
:208A400007285BD0132869D015281ED06EE000F06FF8F9F723FF80462846FAF763FA337839
:208A6000152B18BF072B08D002A801904246002000902146287AFAF765F817B12846FAF7E4
:208A80007EF9404608B0BDE8F081287802284DD100F04EF8F9F7E5FF5FEA0008DCD1BDF866
:208AA0001000002120BBBDF808004038402817D2BDF80A001728A4BFBDF80C0017280FDBD9
:208AC000E868BDF80E200280BDF808204280BDF80A208280BDF80C20C2802F70002707E091
:208AE000E968BDF808004880688800F000FF0221BDF810202846FAF74CF8ADE728780328B7
:208B000014D100F015F8F9F7E3FF5FEA0008A3D1012200212846FAF75DF89DE72878042894
:208B200004D100F005F8F9F70DFF94E70020A9E77288414602A87047F0B589B0054600241D
:208B40000E4611463078062812D0122872D0142802D016283BD081E0728800A8F9F75EFF8F
:208B6000040004D1717800AA284600F089F87CE0728802A8F9F79AFF040076D1BDF8080019
:208B8000FAF761F9070018D0BDF80800ADF8040001ABBDF80A00ADF80600072137480090E8
:208BA00028467278F9F7D3FB022200213846FAF711F83846FAF7E3F857E00220ADF800009A
:208BC000BDF80800ADF80200BDF80A002FE0728802A8F9F790FF040047D1BDF808102846E9
:208BE000FAF746F9D8B1C168BDF80A300A884FF6FF75ED1A95420EDB9818088080B2002800
:208C00001CBFC868002830D01948817969B30079FFF798FE29E00321FAF7F6F925E0022071
:208C2000ADF800000020ADF80200BDF80800ADF8040015E0728802A8F9F766FE040014D18C
:208C40000C48818989B102A9019100227178807B009129463378F9F775FF06E0ADF800405F
:208C6000717800AA284600F075FE204609B0F0BDD0460020B44700207C470020B72A0100AE
:208C8000FEB5164604467088403840280D464BD2B0881728A4BFF188172941DB88423FD3A8
:208CA000002000903088FAF7B9F8070031D0FAF797F8397A88422AD200AB3A46FF212046F8
:208CC000FAF70CF818BB0098C0683189018071884180B1888180F188C180B9880181FB68FD
:208CE000180012D0324629462046984702464FF6FF7082420ED10099062008701E210098A1
:208D000005710098FAF704F9F7BD002202E0042200E00222009B29462046F9F7DAFCF7BD8B
:208D20000020ADF8040008E00220ADF804000020ADF806007088ADF8080001AA29462046C7
:208D400000F008FEF7BD000010B504464FF6FE7084420ED0012906D002290AD10121204675
:208D600002F058F928B92046BDE810400021FAF77EB910BDF8B500F0F3F9DFF83414DFF8DF
:208D800034240C6802EA0403DB430B600B6823401342F7D1DFF8201409688847002C04D548
:208DA0008220F7F749FA04F023FDDFF810140A68130004F0020007D0002800F0E4800020E3
:208DC0000860BDE8F1401047002877D0DFF8F013DFF8F0030B784488DFF8EC13DFF8EC53B0
:208DE000DFF8EC231E0069D05E1E032E0DD9B61F62D0B61E012E40F29380B61E012E40F21F
:208E00009D80B61E00F09D80B8E0DFF8C8030D6041F204454488AC421FBF468BAE42468E04
:208E2000AE4204D11580DFF8B003086071E0022CDFF8A85314804FF4A05641F2024739D93A
:208E40004FF4806CB4EB0C041BD0241F012C1FD94FF47F7CB4EB0C041DD04FF44060241AE6
:208E60000FD0A41E012C0CD9241F0AD0641E012C0ED940F2F930241A012C1BD9241F17D0A8
:208E80007CE0022B14BF1680DFF854530D6040E0DFF85053FAE7DFF85023927C012A03D123
:208EA000478047834786F1E7468046834686EDE7872064E0832062E000F04AF963D0CB4B01
:208EC0000D6018241B6804FB003040F20444438813801B1B012BC64A55D94FF47F741B1B53
:208EE0000FD04FF440641B1B032B84BF5B1F012B0AD99B1E012B46D940F2FD341B1B05D109
:208F000002E041F2014343800A6002E08520F7F793F9BDE8F440B7480078012103F060B84D
:208F200040F204418C421CBF41F208418C42148029D041F604018C421AD000E0148085202D
:208F40001DE0148040F20441641A1CD040F6FC71641A05D0083C16D04FF47F71641AEED10F
:208F6000817B891C8173C9B2B529A4BF66218173A14909698969BDE8F44008478420BDE866
:208F8000F240F7F759B9F1BD2DE9F84F884C606820F0C040606000F0E3F8266897490546A4
:208FA00001EA0600C0432060206830400842F7D100F0D2F88248007805281CBF08280728D0
:208FC0004BD170050BD500F0C3F846D08C4A52684FF49073002103FB0020F6F738FB3002F8
:208FE00040F1AF8076480078C01F012800F2A68000F0AEF831D0824949684FF4907202FB66
:20900000001B7D490969096E0BF16C06706888478246DAF8088018F8010B18F8017B10F0A7
:20902000030914D0B9F1030F06D00FB1307870B174480078012810D09BF8920030B33F1F82
:209040004346FAB24946584604F086FA30B90BF20B103D2141700121017077E000F080F8D8
:20906000054669489BF80610006800EB81100021417165499BF806000A68800181588018E9
:209080004908807903F0D2FB00F066F8B9F1030F46D05E48456968781F3080B204F0C4FB3E
:2090A000CAF8080040B9AAF806004FF480715148007802F095FF06E0801ECAF8080068784C
:2090C0002130AAF806002878810708D5C0074CBF03200020FFB2C01910F8080000E0812062
:2090E00030724B4800781C2812DA307A802818BF81280FBF7F2047490978401A40B2009067
:209100004B463F488078FAB2414603F013F80FE03B4880784B46FAB24146F6F7D8FD07E037
:2091200027480078082803D041465846FEF71EFE314909697068896E884702E08620F7F70F
:209140007BF820682D4908427FF425AFBDE8F18F2B488078FF287047174909682846084711
:209160002D480068004770B5FFF7FAFF04462B480168426802EA0105E94315F47F2F0160B1
:2091800010D00026264800EBC600417839B901780C3125FA01F2D10744BF40688047761C5B
:2091A000042EEFDB2046BDE8704003490968084710100440030000805048002010460020D7
:2091C000B84C0020284E0020C44C0020E1D900100A4F0020244C00202592010071CC0010CD
:2091E0007DC8001051CD0010EC49002080480020C53B0100844C00202C4F0020000480009F
:20920000B04C00208A4C00201048002058E0010004480020C04C00204C48002008100440E3
:20922000AC4F00202DE9F84F012002F09DFC012840F0D481EB4CDFF8B0A3DFF8B093DFF80A
:20924000B0B30020A073204604F012FBF6F712F805460120687105F12C06E6484178491C61
:209260004170A879E4490870402002F050FCE34928600968AA7901EB8213E149C96801F5BF
:20928000B061C16003F13008DAF80000006800F1080706223878C0F3801088F80000B91CC6
:2092A00003F1340004F0B3F800F0C2F9042207F10E010C3004F0ABF800F0BAF9032207F17C
:2092C0001201103004F0A3F8787DB070022207F1160105F1300004F09AF8022207F1180183
:2092E00005F1320004F093F8022207F11A0105F1220004F08CF800203081022207F11C01F6
:2093000005F1360004F083F8B0784000B070B0884000B080F0884000F08080B27189090124
:20932000718143006A8C521C5A4389B28A4200D230B99BF80000802102F052FE3B21A2E0E1
:2093400005F12E01284604F087FA0520A881284604F07EFA052207F11E0105F1610004F054
:2093600056F897F823004009307004F0F1F86882E18AA44C401AA8F80A0005F1610197F8F7
:209380002300A14F00F01F00F0732846F6F72EFEDAF800100968002008714FF0180A2068EC
:2093A000A9790AFB010141F601020A800022A9790AFB01014A80A9790AFB010001214260BF
:2093C0002846F6F734FE00F03FF9887300F036F90021C17300F032F9807B7073D9F800C0DF
:2093E000A87921680CEB40120AFB00100261A8790AFB001047618548416991F800E095F8B7
:2094000006805FEACE714CBF102100215FEA8E724CBF202200225FEA4E734CBF402300238E
:209420005FEA0E7E4CBF4FF0800E4FF0000E114319430CEB481C4EEA010141F00F018CF828
:209440000810AA79D9F8001001EB42110B224A7200F0E8F804228A7200F0E4F86C4A1278CA
:20946000012A0EBF0120806A4078C872A879FEF7E3FEAA79D9F8001052015050A8794201A5
:20948000515821B90721284604F06EF9A6E0DFF88481D8F8001001EB00105F490969096D8A
:2094A0008847A979D8F80020D9F8000002EB011200EB41114A60A97900EB41114968F163AF
:2094C000A9794901085870640421002038707870B870F87038717871B871F87138727872CF
:2094E000B872F872387378738020B8730020F87338619BF8000002F073FDB088AF794FF4BB
:20950000C872811C688AA9614843B0FBF2F000F1010CC5F814C040F6C4102B68D3F80CE07D
:20952000226800FB01E10AFB0727A1EB0C01A1F5A861B960A9790AFB012189689960A979EB
:209540000AFB01210A7B02F0EF0200F07CF80A7B02F07F0200F077F80A7B02F0F00242F026
:20956000020200F070F84A7B02F0F00242F001024A7300F069F82A68896811616B69D9F809
:209580000010AA79B7785B0001EB421200FB073303F5F6635361AA79204F01EB4211CA7C7D
:2095A00002F0F00242F00402CA74D9F80010AA79F38801EB421200FB0370D061A87901EBE6
:2095C0004010C17E01F0F00141F00401C17600F035F829684860072011490870BDE8F14F79
:2095E00004F0CEB8EC490020584D002084480020844C0020B04C00200848002010480020F7
:20960000984E002080480020704E002058E00100864C00201C4F00202C4F0020F0DDFFFF62
:20962000B84C0020D9F80010AA7901EB42117047D9F80000AB7900EB431070472068A97978
:209640000AFB010070470A732168AA790AFB0211704770470A4610B5052A18BF042A03D082
:20966000062A18BF072A09D1DFF8A4330C2404FB023222F8301D9070002010BD022010BD84
:2096800038B50D4604462888052818BF042803D0062818BF072801D1686808B9022032BDE5
:2096A0000121204601F0B6FC08B9142032BD4FF6FE70844207D0204601F0E7FC2989884295
:2096C00001D21B2032BDDFF84C0300780028294620461CBFBDE83440F9F73DB8BDE8344000
:2096E000F8F76ABE10B50446208808B1FF2801DD182010BDC84A61881288914202D3B1F5F6
:20970000007F01DD1B2010BDC449227A0978914201D2022010BDF9F781FB08B1112010BD02
:209720002046BDE81040F9F741BB38B504460846F9F774FB05000AD0687AA04207D1284615
:20974000F9F74EFB08B1122032BD288032BD022032BD10B50C0012D0F9F760FB78B141885E
:209760002180AD49098861808188A180C188E180017A2172F9F734FB6072002010BD0220FE
:2097800010BD70B50C461546F9F748FB060018BF002D27D034B362000021284603F0AEFE7F
:2097A000002001E0401CC0B29D490978884217DA9C49096801EB00110A78002A1CBFCA68AC
:2097C000002AEFD0984B127F1B6803EB0212B242E8D1498825F81010641EE4B2002CE1D1F6
:2097E000002070BD022070BD10B50C000AD0F9F72AFB38B101782170A11CC068F9F745FA06
:20980000002010BD022010BD38B504462088F9F71AFB05001CBFE868002807D02878012890
:2098200004D1E888012101F0F5FB08B9142032BDE968487FE0B9606808B9022032BD228906
:2098400012B18B88934201D21B2032BDCB680BB1162032BDC8600A8200204882088808B95D
:20986000FF20487701217148007802F0B9FB002032BD70B5044686B016460846F9F7CEFAFB
:2098800005001ED0F9F7ACFA297A884217D2ADF80C6003AA6888664BADF8100014215E48FA
:2098A0000088ADF81200A888ADF814000295FF200190022000902046F8F7FEFC02E0152021
:2098C00000E0022006B070BD38B51446F9F7E9FA05000AD0F9F726FB2979E8882B462246AE
:2098E00001B0BDE83040F8F7F4BE022032BD00B585B0504BADF80E0003AA00200290062132
:20990000FF200190032000904FF6FF70F8F7D4FC05B000BD70B505460C46F9F794FA0600B9
:209920001CBFF068002813D084B14FF6FF710089091B81420ADBF08822462946F9F774FBFC
:2099400038B9F1680A89A2180A8170BD182070BD022070BD80B5384B009313460A460121EE
:209960001BE0E0B5019200230522009202930A46324B0A2108E0E0B5019200230422009270
:2099800002930A462E4B1221F8F796FC0EBD80B52C4B009313460A461321F8F7D8FC02BD4C
:2099A00038B5044628480129017011D11A480088051D012003F0C8FD01B0ADB2284694FB91
:2099C000F5F2BDE83040002392B2002103F0B8BDBDE83240002003F0B7BD03B51A4800786B
:2099E000012881B003D102AA01A903F0A5FD07BD094A001F1080074801707047064800883B
:209A00007047124902780A704078487070470000B4470020D646002034470020D8460020E9
:209A2000D5460020DC460020E0460020D44600201B2A0100AB2A01005F2801004F2901000C
:209A4000DD28010043290100B8480020D0460020DFF8BC0390210170882141700121817018
:209A60000221C1700021017180214171002181712021C1710021DFF89C0301818021817279
:209A80000021C172C1603F21017000214170418041603F20DFF88013087070472DE9F84303
:209AA000804600F072F91D4637D5DA480078400733D500F064F998B10C2003F069FB60B301
:209AC0009121017080F803803E214170868003218170C78005814481014699F800001BE0D8
:209AE000152003F055FBC0B100F055F981F804803E224A704E710A228A70CF710322CA70A4
:209B0000320A8A713A0A0A724D722A0A8A72CC72220A0A7300F0A5F847E1BDE8F183F8B5FD
:209B200000F0DBF80D4616462FD5BA48007800072BD5172003F02CFB070026D00120387017
:209B40000822FF20787007F1080078600420796808703E20796848700C207968887004205F
:209B60007968C8707868047178684571280A7968887131467868C01D03F049FC3946BDE845
:209B8000F440A648007802F01DBFF1BDF8B5A44E074630780C46154620B3B8000C3080B275
:209BA00003F0F6FA00284FD09021017087701321417000F10C01416000EB47010C3181608D
:209BC00000210AE0436834F8112023F81120836835F8112023F81120491CB942F2DB01461D
:209BE00030782DE0B800461C06F10B00C0B203F0CFFA48B301210170FF21417000F108010D
:209C0000416004214268117013214268517041688E704168CF7000210EE000F01CF813718E
:209C200000F019F81B0A537100F00FF8937100F00CF81B0AD371491CB942EEDB00F011F8C0
:209C4000BDE8F44002F0BEBEF1BD426835F8113002EB81027047426834F8113002EB810249
:209C6000704701466D480078704738B500F035F832D56848807A00062ED56A4D287858B1DE
:209C8000062003F085FA38B390210170448057214170014628781BE00D2003F079FA0100BC
:209CA0001AD001200870FF20487001F10800486004204A68107057204A68507002204A6895
:209CC00090704868C470200A4A68107153480078BDE8344002F076BE31BD04464C48C079EC
:209CE000800670472DE9F843054600F04EF8984603D548480078800605D42846BDE8F443EE
:209D00001A21F8F7F3B800F03AF8B0B10E2003F03FFA002831D09121017085803E21417030
:209D2000C6800621817007810021C170A0F80A808481014699F800001EE0162003F028FAA3
:209D4000D8B100F028F80D713E224A708E710B228A700F720622CA7081F80A802A0A4A71D7
:209D60000C73320ACA713A0A4A724FEA1822CA72220A4A73FFF775FF17E0BDE8F183DFF804
:209D8000A490089C99F8000070472148C07980060E4617467047012101700422FF21417089
:209DA00000F1080141600A707047BDE8F44302F009BE2DE9F0411B4F044638780D4690466E
:209DC000E0B119480078C8B905F10C0080B203F0DFF906001AD0912030702A46FF207070E9
:209DE000B570B48006F10C00B060414603F00FFB38783146BDE8F04102F0E4BD43462A46EA
:209E00002146BDE8F041FF2003F092BBBDE8F081004F002038480020084F0020B2480020F0
:209E2000B5480020B4480020284F00200A460146012002E00A460146022070B50C46150073
:209E400018BF002C01D1022070BD1070D61C20785070751C60789070201DFCF70AF93070D8
:209E6000207A2870E068000A00F001006870E168C1F3402101B1022108436870E168C1F342
:209E8000802101B1042108436870E168C1F3C02101B1082108436870E168090B40EA0110B3
:209EA0006870207B00F00100A870E168C1F3400101B102210843A870E168C1F3800101B180
:209EC00004210843A870E168C1F3C00101B108210843A870E168090940EA0110A870002030
:209EE00070BD38B505000C4618BF002C01D1022032BD68782070A8786070201DE978FCF71A
:209F0000C8F82879E168207221F48071687900F0010241EA0221420821F4007102F0010218
:209F200041EA4221820821F4806102F0010241EA8221C20821F4784102F0010241EAC221B5
:209F4000000941EA0031E1604908A87900F0010242EA4101420821F0020102F0010241EA0A
:209F60004201820821F0040102F0010241EA8201C20821F0F80102F0010241EAC20100099B
:209F800041EA0010E060212000F0EAFA217A814205D3222000F0E4FA217A884201D2122081
:209FA00032BD20780528BCBF6078022801DB182032BD002032BD80B50B0018BF002801D14D
:209FC000022002BD032112E080B50B46002818BF002B01D1022002BD411C10220BE080B578
:209FE0000B0018BF002801D1022002BD042103F8011B10220146184603F009FA002002BDBC
:20A0000080B50B46002818BF002B01D1022002BD411C1022EFE7002918BF002801D102205C
:20A02000704705220A700078487000207047002818BF002901D102207047407808700A288C
:20A0400000DA08B9182070470020704780B50B0018BF002801D1022002BD0621C7E780B5A3
:20A060000B46002818BF002B01D1022002BD411C1022C0E780B50B0018BF002801D1022049
:20A0800002BD072119700822018859700188090A9970811CD81CAFE780B50B46002818BF83
:20A0A000002B01D1022002BD10F8011F427801EB022119800822811C981C9DE780B50B00F9
:20A0C00018BF002801D1022002BD08218FE780B50B0018BF002801D1022002BD092119708A
:20A0E000062201785970411C981C85E780B50B46002818BF002B01D1022002BD411C102287
:20A1000079E780B50B46002818BF002B01D1022002BD417819700622811C581C6CE780B579
:20A120000B0018BF002801D1022002BD0A215EE780B50B46002818BF002B01D1022002BD8F
:20A14000411C102257E710B50C0018BF002801D1022010BD0B212170FBF78BFF6070002078
:20A1600010BD80B50A46002818BF002A01D1022002BD41781046FBF78CFF002002BD70B521
:20A18000044684B008460621ADF80010ADF8080015461E46F8F7E0FF010001910DD02846FF
:20A1A000B047050004D100A92046FFF769FA054625B1019802F0B2FC00E01325FBF762FEA2
:20A1C000284604B070BD000030B540F67B44851FA5423CBF8D1FA54212D2814210D3B2F50C
:20A1E000FA7F0DDAA3F10A0040F67744A04207D2501C49004843B0EBC30F8041C00F30BD8B
:20A20000002030BD80B5F7F799FA8DF80000FFF71FFC9F490020087000AA9E49088001212A
:20A2200040F603407CE080B50FF2D422412141F2020003F079F9002002BD7CB5002808BF22
:20A24000002938D1BABB01A8F7F7B6FF9DF8040000EBC000451DEDB2284602F04DFF060014
:20A260004FF6204418D020203070042070700020B0709DF8040000280CBF0022721D311D9E
:20A28000F01CF7F7E4FA324629462046FFF791FD304603F021F80CE020208DF800000421BD
:20A2A00000A800AA41700721817020460321FFF780FD002076BDF7F7CAFA76BD1CB5044632
:20A2C0000DF10301F7F718FB8DF800008DF80140200A8DF8020000AA052140F67B4008E0D6
:20A2E00010B582B00446F7F718FB00F040F840F67C4003F019F9002016BD80B500208DF830
:20A30000000000AA644800788DF80100042100208DF80200614800788DF8030042F202003E
:20A3200003F002F9002002BD1FB504460898029007980190069800902046F7F7B9FD8DF813
:20A340000C008DF80D40200A8DF80E0003AA032142F2200003F0E8F85CE010B582B00446ED
:20A36000F7F7C4FD00F003F842F22100C1E78DF800008DF80140200A8DF8020000AA03217C
:20A38000704738B5044642F216052946002003F0C7F82046F7F73FFB8DF8000020B100AAB1
:20A3A0000121284603F0C0F8002032BD80B50123F7F753FC00F01BF842F21E00B0E780B59C
:20A3C0000121F7F7C3FC00F012F842F21D00A7E780B530B101460822314803F018F80020B2
:20A3E00000E0122000F003F840F6634098E78DF8000000AA0121704710B584B0089C0294CD
:20A40000079C0194069C0094F7F7A0FD42F2130103F086F8002004B010BD10B582B01D21B4
:20A420008DF8001000AC04218DF8011010B903F073F800E01120A07000AA03214FF61D4068
:20A44000FFF7B7FC002016BD80B51C208DF8000000AA04208DF8010003210C208DF802003F
:20A460004FF61C40FFF7A5FC002002BDF7F7AABE80B530B10B4902780A7040784870002081
:20A4800000E01220FFF7B3FF42F2010048E70000244F0020264F0020044800208B4C002013
:20A4A000404800203848002000B585B000AA0DF1020101A803F02CF88DF80800102107201A
:20A4C0008DF8090002AA02A8817002218DF80B109DF804108DF80C10BDF802108DF80D1031
:20A4E000090A8DF80E10BDF80010C171090A017241F20100092103F017F8002005B000BD37
:20A50000000000800000C000000000E40000002822000000000000040000F7C3B77E0000DA
:20A520000030300000000000000000000000000000000000000000000000000000000000BB
:20A5400000000000272809DA4FF6FF72914205D0DFF8382322F8101000207047022070474F
:20A56000272803DAC94931F8100070474FF6FF70704770B504460D46C54E1C220021304698
:20A5800002F0BCFF3477757703F032F800280EBF012100211220317070BD38B5BC4D0446E2
:20A5A0000846EA60A8606C601022002102F00AFF012803D1A8681021FBF748FD1022002119
:20A5C000204602F0FFFE012805D16868BDE834401021FBF73BBD31BD2DE9FC41AC4D04469F
:20A5E000002695F81E80042C0F4624DA2878032818BF102054D100F00EFE28B901F0B4FF0F
:20A6000010B901F0B5FF08B1122049E0012C18BF022C1DD1BFB10622002100A802F06EFFD8
:20A6200000F040F838B90622FF2100A802F066FF00F038F808B1022032E00622394600A85E
:20A6400002F0E5FE0BE0062100A8FBF7FFFC06E0032C04D1686800A9FBF780FB06468D4F86
:20A66000AC770421387802F08FFC002028849EB9ACB100A800F057F806000DD1032C0ED10C
:20A680001D20FFF76DFF288448B138784EF66022042102F06FFB02E00EB185F81E8030464D
:20A6A000BDE8F681062200A9384602F025BE70B504460025764E2CB921B1062206F110001C
:20A6C00002F0A5FE307801280BD1012524B902203070FFF712FE04E000203070204600F073
:20A6E000B4F8284670BD38B50025D0B10478684A34B94178837801EB0321D182C078107690
:20A70000107802280DD1012534B903201070117ED08AFFF76DF901E000201070204600F0D7
:20A7200094F8284632BD10B5594CA17F81B10146062204F1240002F06AFEA07F04F1240159
:20A7400000F008F804F12400BDE8104002F0DCBE002010BD0022002918BF00280ED04A7997
:20A76000012808BF42F0C00006D002F03F0203284A7102D142F040004871012210467047DA
:20A78000002918BF00280BD0487900F0C000C02801D101207047402801D10320704702207D
:20A7A000704770B53A4D0446287FFF2815D00A2002F0EEFC060010D0D020307074700820B1
:20A7C000B0700622A87FF07005F12401301D02F01EFE287F314602F0F5F8E87F01280FD1C7
:20A7E0002D48006818B18068010018BF8047BDE87040284800784EF66022042102F0BABA9E
:20A8000070BD2348806870472148C068006870471F48C1680A68521C0A60007FFF281CBFF6
:20A820004FF4804101F0DCBB70471948807F7047174A02F1100118B9907F08B102F12401A8
:20A840000846704712484068704770B5104D0446287FFF2819D00E2002F09AFC060014D017
:20A86000D020307074700020B070062205F11001F01C02F0CCFDE88A70813146287E30730B
:20A88000287FBDE8704002F09DB870BD4C45002048460020F4460020F8460020F8B514462A
:20A8A00000250E46B54FB64B40B1012815D0042818D006281ED0072822D02CE0162928DA7D
:20A8C0001622002107F10C0002F018FE3246214607F10C0002F09BFD1EE0022E19D12088E6
:20A8E000388119E0082E14D138462146082201F015FD11E0012E0CD1DA6903F1280104E038
:20A90000012E06D1DA6B03F14801207800F03DF802E0182500E002252846F2BD10B50B4699
:20A920000024964920B1012808D0042809D00DE015220C31184602F06AFD08E00889188014
:20A9400005E01846082201F0E9FC00E00224204610BD70470020704701460020C90706D5DB
:20A960000FF23423864810220721F5F7FDBC704701460020C90704D5814840890021F5F74C
:20A980001DBD70477F490860704710B50B7884074CBF43F0020303F0FD0304064CBF43F0EE
:20A9A000800303F07F0304074CBF43F0080303F0F70384064CBF43F0200303F0DF030B7023
:20A9C000AA21084203D0107840F00C0003E018B9107800F0F300107010BDF8B506980F46BF
:20A9E00014461D46002608B10B20F2BD3878022849D178680178407800F0C6F808D0401EF8
:20AA000010D0401E1ED0401E14D0401E20D03AE0F86802F01FFD079A80B2824288BF0246CC
:20AA20002A800AE0F8680088022129802070000A60702AE0062028800622F968204602F0AB
:20AA4000E6FC22E001202880F868007820701CE0F868B0B108212980018821700188090A9C
:20AA600061704188A1704188090AE170818821718188090A6171C188A171C088000AE07177
:20AA800003E0288001E02E8001263046F2BD2DE9FC4B0E46804630780027022891461D46A6
:20AAA00067D17068017840780A9CDFF8D8B000F06BF806D0401E29D0401E4CD0401E38D0F0
:20AAC00057E0F06802F0C6FC80B2A04204D32919162903DB0D274DE007274BE0F3682A4664
:20AAE0004946E01802F093FC2C19F068A4B2C4F116020021201802F001FDDBF8000000284A
:20AB000038D00268100035D0002121E07CBB022DE0D199F8000099F8011000EB0120F168DD
:20AB20000880DBF8000028B30268100022D001210EE0E4B9062DCDD1F0680622494602F0F4
:20AB400066FCDBF80000A8B10268100012D00321404690470EE054B9012DBBD199F8000044
:20AB6000002813BF0128F1680870802702E00B2700E001273846BDE8F68B000074460020A0
:20AB8000DC4400209448002001EB002080B24FF42851401A70470000DBA901008FAA0100AF
:20ABA00000000000824908607047814948607047804908707047032290FBF2F080B2FEF7D1
:20ABC000EFBE0178B02904BF417800290CD10179122903D1417C012906D101E01B2903D1B4
:20ABE00040880121FEF7F9BE704780B5724A5070042172480078401C10705078FEF72AFD40
:20AC0000BDE80140F8F7B8BA38B50C46200411D56948407801F01AFC050008D02878A028EF
:20AC200004BF284600F008F8284602F075FB84F4004032BD002032BD30B587B004460120E6
:20AC40008DF8000001A92046FCF7B8FD05002AD19DF806105648C9070AD54368180005D027
:20AC6000608800AA01A9984705461CE006251AE00368180006D0608800AA01A998470500D4
:20AC800001D110E006259DF8050060B99DF806008DF810008DF814500020ADF8120004A977
:20ACA000608800F088FD9DF8000000281EBFA068002801F033FF45B99DF80600122806BFB2
:20ACC0009DF8051001291B2803D060880121FEF784FE07B030BD2DE9F0410446FF2C0D4656
:20ACE000164698461FD0202002F052FA070018D0B02038707E707D8087F80480069929B1DF
:20AD0000182207F1080002F082FB04E0182207F1080002F0F3FB3946204601F053FE002045
:20AD200002E0132000E00220BDE8F08110B54FF47A746243BDE8104002F0D3BB10B504000D
:20AD40001EBF2078FF28FE2803D001F06BFEFF20207010BD80B5009313460A460146154873
:20AD60000078FFF7B8FF02BD30B583B004460D46FCF7CDFF50B901A80090ADF804507F239E
:20AD80000C48007800222146FFF7A5FF37BD00B583B07E238DF804108DF8052001A90091C9
:20ADA0000022014603480078FFF795FF07BD0000744800203A470020AE4800207C470020A3
:20ADC000052923D006291BD0072918BF09291DD00B2918BF0D2919D00E2913D00F291CBFBB
:20ADE0001129122912D0162918BF17290CD01B2918BF1D290AD0522918BFD22906D007E085
:20AE0000C06870470068704780687047406870470020704770B5052914461D4616D006293A
:20AE200012D0092918BF112910D0122912D0162918BF17290CD01B2918BF1D290AD0522908
:20AE400018BFD22906D007E0072606E0022604E0052602E0032600E001264FF6FF7294427B
:20AE600003D1FCF769FF841B02E0D22908BF0C34301980B2F8F770F938B105B12C8071424F
:20AE8000BDE8704009B202F023B970BD80B5FFF797FF00281CBFBDE8024001F03FBE01BD50
:20AEA00038B5A34C002200212046FFF7C6F920782C25684302F020F96060B0B1002109E08E
:20AEC00005FB01024FF6FF735380491C002313719362C9B222789142F2DB0020002104EBFF
:20AEE0008002401C0C289160F9DB31BD0021904A02EB8102936813B9906000207047491C2F
:20AF0000C9B20C29F3DB132070472DE9F04106460C4617469846204600F04EF808B1112023
:20AF20001EE04FF6FF7000F047F8050017D085F8058006220699A81D02F069FA6C802F71D5
:20AF40002E700020A8620021079828730898E88109982882204600F0DAF8002000E015201D
:20AF6000BDE8F08110B500F027F8040012D06088012100F0CCF8A06A08B102F0ADF92C229A
:20AF80000021204602F0BAFA4FF6FF7060800020207110BD022010BD10B50C4600F00CF878
:20AFA00040B10179214301710221408800F0AFF8002010BD152010BD10B500225C4B00E071
:20AFC000521C1978D2B28A4208D259682C2404FB02114C888442F3D1084610BD002010BDBF
:20AFE000F0B5534B5C6800224FF6FF7701E0521CD2B219788A420BDA2C2101FB02F52919D6
:20B000004E88BE42F3D02D5D8542F0D10846F0BD0020F0BD10B50C464FF6FE71884206D052
:20B02000FFF7CAFF00281CBF0079204201D0012010BD002010BD80B5FFF7BEFF00B1007BB3
:20B0400002BD10B500200021394A2C2406E0536804FB01331B7903B1401C491C1378C9B275
:20B060009942F4D3C0B210BD31480078704710B50C46FFF7A1FF00281CBF018AA14202D057
:20B080000482002010BD012010BD80B5FFF794FF00B1008A02BD70B505460C461646FFF783
:20B0A0008BFF28B94FF6FE70854218D0142070BD0179806A28B9CA0609D5C90609D40F2094
:20B0C00070BD01F01202102AF7D1002EF5D0052070BD20B1807EA04201D20C2070BD0020FA
:20B0E00070BD70B5040011D00025114E0BE070682C2101FB05004FF6FF724188914218BF5B
:20B10000A0476D1CEDB230788542F0DB70BD70B504460D460026064800EB86008268100018
:20B1200002D0294620469047761C0C2EF3DB70BD7C4700209B494870704710B5994C20705A
:20B1400000F0DEFF2078BDE810400521FEF782BA7CB5944D28780C46210419D501F076F9C7
:20B16000060084F4004411D000F057F858B93078A22806BF8C4800786878FF2803D0314608
:20B1800001F020FC02E0304602F0C6F8204676BDE10709D5A86820B1416808001CBF0020AE
:20B1A000884784F0010076BDA10709D5686820B1416808001CBF0120884784F0020076BDCC
:20B1C000610726D5794E3188E9B1481E308080B2E0B901F0C9F948B175490120087068683E
:20B1E00020B1416808001CBF01208847FFF72AFB00A9FAF7B3FD00A8FFF795FA1D20FFF73D
:20B20000AFF9308002E0042101F0BEFE84F0040076BD002076BDFFF714BF38B502780124CF
:20B22000912A4FF6FF7103D0A22A00F0928096E042785C4B052A4DD00E2A04D00F2A4CD079
:20B240003E2A6DD08BE0828841F20905511B32D040F6F975491B34D0C91E36D0491E09D0EC
:20B26000891E022906D9C91E1BD0491E15D0891E08D074E05968002972D009680A006FD046
:20B2800088476AE04B490968002969D04B68190066D0014642F20E0040E0816809780029F0
:20B2A0005ED0996800295BD00B68190058D001461046984751E08068411C0078FFF7F7F907
:20B2C0004BE08068FFF70FFA47E080680078FFF768FA45E0F9F735FB42E0828842F20D05C6
:20B2E000531B13D09B1F02D09B1F0FD037E0324B1B888B420AD03149096889B30A68110050
:20B300002ED0014642F21300904726E02949096831B34B68190023D00146104698471CE0C6
:20B32000817801290BD002290CD0032904D0062915D1F9F7F9FA13E0024680880BE0F9F7F2
:20B340009BFA0DE0996859B149680A0008D0884706E00246408800F005F8044600E00024CD
:20B36000204632BD70B50C461546FFF764FE0126042804D11148006858B1026803E00D48BA
:20B38000006830B14268100003D02946204690470646304670BD034988607047014948605F
:20B3A00070470000F4460020644600206846002067460020B0460020A446002090480020FF
:20B3C0002DE9F04F7B4D05F120000068ADF1240D01F056FC08B101F0AFFFDFF8C4B1DFF845
:20B3E000C891754C01F09CFE01F016FF6F692E69B7F57A7F13D0801B4FF47A720023A7FB1C
:20B40000000100F0DBF880464FF47A72002302F00AF83A46002300F0D1F8801901E0A0EBFB
:20B4200006082861DBF8000020F00200CBF8000060688047D9F80010D9F804304646711843
:20B44000B1F57A7F0DD34FF47A72B1FBF2F2D2184FF47A73C9F804201F46B1FBF7F25A4318
:20B46000891AC9F80010A1688847404600F0DAFCDBF80000002640F00200CBF8000029E03D
:20B48000686ABDF806C0A7F10C0809213246401E10F8013F9C4504D0491E02F10102F7D191
:20B4A00016E05FFA82FABAF1FF0F11D098F8040001F084FD98F80610012903D0022908BF8C
:20B4C000B87000E038705046394601F07BFA01E001F032FF08200727ADF800002168ADF815
:20B4E000027068468847029F0028C9D02D4800687700C35B23B9761CF6B2092EF8DB1EE06B
:20B50000092E1CDA6068804726490968002231F80780CA53A1688847244850F826202E7030
:20B520004146304690470646FF202870606880471C4909687A5A16437E52A168884701F009
:20B54000EFFD0746B7F1FF3F1CD007B9184FA869B84238BF071C606880471C230646EA6927
:20B56000ADF812300820ADF810002168059204A88847296A3846491C296201F0A1FBA168D5
:20B580003046884708200A27ADF818004FF0FF36ADF81A702168079606A8884722E7C046FB
:20B5A00010E000E0A84800201847002008E001008EC2F52818460020484800202DE9F04161
:20B5C0001C4615468C4208BF854282BF00230022E5E0002C08BF002D0AD100290EBF0028EE
:20B5E0006FF000006FF0000100F0E1F8BDE8F0815FF000085FF0000E002C08BF8D429CBFDC
:20B600002C1C0025070C47EA01470E0CB44208BFBD429EBF5FEA044444EA15445FEA054553
:20B62000070A47EA01670E0AB44208BFBD429EBF5FEA042444EA15645FEA0525470847EA24
:20B64000C1774E08B44208BFBD4200F29380870847EA81778E08B44208BFBD427CD8C7086E
:20B6600047EA4177CE08B44208BFBD4266D8070947EA01770E09B44208BFBD4250D847090D
:20B6800047EAC1674E09B44208BFBD423AD8870947EA81678E09B44208BFBD4224D8C70964
:20B6A00047EA4167CE09B44208BFBD420DD8E60146EA5566EF01B14208BFB84201D3C01B14
:20B6C000B14158EB08085EEB0E0EA60146EA95664FEA8517B14208BFB84201D3C01BB141C4
:20B6E00058EB08084EEB0E0E660146EAD5666F01B14208BFB84201D3C01BB14158EB0808B8
:20B700004EEB0E0E260146EA15762F01B14208BFB84201D3C01BB14158EB08085EEB0E0EB5
:20B72000E60046EA5576EF00B14208BFB84201D3C01BB14158EB08084EEB0E0EA60046EA66
:20B740009576AF00B14208BFB84201D3C01BB14158EB08084EEB0E0E660046EAD5766F00E2
:20B76000B14208BFB84201D3C01BB14158EB08085EEB0E0EA14208BFA84201D3401BA14117
:20B7800058EB08085EEB0E0EA34208BFAA423EBF2D0A45EA0465240A89D3734642461E465E
:20B7A00017460B46024631463846BDE8F08170476E490860704780B5002200920B4601229E
:20B7C0006B4900F0BAF802BD80B50A88172A05DB002200920B4603226649F2E7022002BDD9
:20B7E00038B50D460446A878012818BF02280DD1288800281CBF6868002807D0022101F001
:20B8000067FC00902B4605225B4931E0022032BD38B500F01EF81CBF6868002806D000F04B
:20B8200036F800902B460722544921E0022032BD38B500F00EF81CBF6868002807D0022151
:20B8400001F046FC00902B4609224D4910E0022032BD0D46044628880028704738B500F0E9
:20B8600024F808B100F013F800902B460B224549204600F062F832BD38B500F016F808B1F9
:20B8800000F005F800902B460D223F49F0E7012101F01EBC38B500F008F808B1FFF7F7FFBD
:20B8A00000902B460F223949E2E70D4604466868704738B5FFF7CDFF1CBF6868002807D08E
:20B8C000022101F005FC00902B4611223049CFE7022032BD80B5002100910023132270E749
:20B8E00038B50D460446A86810B1052101F0F0FB00902B4617222749BAE780B500210091B9
:20B90000002319225DE738B5FFF7CFFF10B1032101F0DEFB00902B461B2209E038B5FFF71B
:20B92000C4FF10B1032101F0D3FB00902B461D2219492046FCF74EF932BDF8B504460698DA
:20B94000009015461E462046FCF744F907000AD106480268100006D0012D04BF3078451C88
:20B96000E9B2204690473846F2BD00007C4800201778010053780100857801003B790100CF
:20B98000C1790100FF790100797A0100AB7A0100B17A0100177B01008B7B010000220229C6
:20B9A00070D10178407801EB002080B24FF4C051401A2CD0401E2DD040F6FF71401A2CD0D6
:20B9C000401E2DD0401E2ED0401E2FD0FD3830D0401E31D0401E32D0401E33D0401E34D09C
:20B9E000401E35D0401E36D0401E37D0401E38D0F83839D0401E3AD0401E3ED0401E39D041
:20BA0000401E3DD0401E08BF0FF2C0023AE00FF2780237E00FF2740234E00FF2740231E014
:20BA20000FF270022EE00FF270022BE00FF26C0228E00FF26C0225E00FF2680222E00FF2AE
:20BA400068021FE00FF264021CE00FF2640219E00FF2600216E00FF2780213E00FF274027C
:20BA600010E00FF274020DE00FF24C020AE00FF24C0207E00FF24C0204E00FF2440201E0A8
:20BA80000FF24402104670470018000001180000002800000128000002280000032800007B
:20BAA000002900000129000002290000032900000429000005290000002A0000012A00002C
:20BAC000022A0000032A0000042A0000052A000006290000072900000829000070B50021DA
:20BAE000FF224A484A4B09E0182486684C43A61900257570491C85686255C9B21C78A41CBB
:20BB0000A142F1DB002182700180416070BD10B500233E4A9168182404FB03114C78D4B90B
:20BB20000C78FF2C02D05468A14214D0087000234B604B6101234B705378034353701378D1
:20BB40005B1C1370DBB2012B1CBF8028402800D15160084610BD2E4909785B1CDBB2891C09
:20BB60008B42D7DB002010BD10B5284A9268002118234B439C5C844202D19818407810BD78
:20BB800000F017F8F4DB002010BD10B51F4A9268002118234B439C5C844202BF9B185B78D3
:20BBA000012B01D1012010BD00F003F8F1DB002010BD174B1B78491CC9B29B1C99427047D7
:20BBC00010B512498B68002218215143CC5C844202BFC9184C78012C01D1084610BD0C49A0
:20BBE0000978521CD2B2891C8A42EDDB002010BD10B50446054844606069010018BF804744
:20BC00002046BDE81040FAF75ABE0000F44E0020BC4C002038B504460D46FFF7CDF998B1A7
:20BC2000007B042801D0122032BD3648006800B1857D294600A8FAF72CFA334B00AA022159
:20BC40002046FEF79CFA32BD142032BD80B52F480078400707D52E48F9F7B0F82D494FF6D1
:20BC6000FF70088001BDBDE802400020F9F7A6B87CB5012403280E4610D042F213018842F3
:20BC800004D04FF6FF7188421ED02AE0B0780C2818BF112826D100F027F823E0F078B18843
:20BCA0001C4D1A2804BF2A889142F4D0728900923389F288F8F7B6FEB0882988884211D1D2
:20BCC0004FF6FF7028800DE070790024122809D1ADF800403179708800AAFDF73BFE012477
:20BCE00000E00024204676BD38B50A4C20884FF6FF75A84205D008490A780849FDF73BFEF3
:20BD0000258031BDAC46002047A10100654600202C470020A4460020F44600209C460020D1
:20BD200010B53C4C207000F0F1F920780621FDF791FCBDE810403848FFF7D8B838B50C46D2
:20BD4000200416D53348007800F080FB05000DD000F01FF838B931480078FF2803D0294642
:20BD600000F030FE02E0284601F0D6FA84F4004032BDE00704D5F9F7BFFC84F0010032BD1E
:20BD8000A00704D5F9F783FD84F0020032BD002032BD38B5044601252078922802D0A028F6
:20BDA0002CD033E060780E2802D03E280BD02DE0A08842F21801884228D1A068411C007831
:20BDC000FAF72BF818E0A078052806D008281DD1A179A088F9F706FD0EE0A088FFF72BF9B9
:20BDE000042814D10E48006888B1836818000ED0E289A088A11D9847054608E02046F9F7A1
:20BE00007DFCA06818B100F089FE00E00025284632BD0000BD480020E1560100F546002047
:20BE2000644800202DE9F84F364E044670688047354D01462A1D1068201810600846B168D5
:20BE40008847286800285BD0A9464FF0000807463546C2466868804756461FFAA4F383467E
:20BE600083B95FFA94F36BB93979E0B2884204DD79682046884209D20AE03879E1B2401A1F
:20BE8000387108E079682046884201D3314601E07968091A7960B88878B9FB8853B9FB6894
:20BEA00043B13B8933B1B87A194600F099F8F8687860B88808B9FB880BB13B896BB9B8F1CB
:20BEC000000F04BF3868C9F8000003D03868C8F8000038683E46074601E0B8463F68A968F4
:20BEE0005846884756B1B08828B9F08818B9B07A318900F075F8304601F0EEF9002FA9D134
:20BF0000BDE8F88F484800206C4800202DE9FC41314C0646A4F110052868002818BFFF20FD
:20BF200058D1DFF8B88008F104000068804721688446002011F0030F08BF01208DF80000AA
:20BF40009DF80070002FFBD06268002054F8041C606044F8040CE768034607B901238DF87F
:20BF600001309DF80170002FFBD044F8106CEF69002FFCD0E06077084346E0600CD2368861
:20BF8000360B09D36E68012E06D12E69B608FCD36FF003052560256054F80C5C05F0FF0566
:20BFA000012D08BF01208DF802009DF80270002FFBD0D04320602060CF4344F8087C44F8C2
:20BFC000087C626044F8041C99686046884754F80C0CC0B2BDE8FC8110100440484800203D
:20BFE0002DE9F041274E80460C4638F07F0016D1B8F1090F10DA244D686880472049096852
:20C0000031F81820144321F81840A96888470C36306801F021F930E00320BDE8F0810420C5
:20C0200001F0B6F8071C08BF042027D04FF6FF7038807C8001F05CFA7478A7F10C05FF28F1
:20C0400002D0716A4018447AFF2C07D1384601F063F901F071F90120BDE8F081404601F046
:20C0600095F901463A46FF20A872204600F0F0FE18B1384601F050F9EDE70020BDE8F08163
:20C08000A8480020184600204848002010B5040021480470002021490870002020490870B9
:20C0A00000202049087000201F49087000201F490870FDF7CDFC00201D49087010BD70B5D2
:20C0C00004000D00280416D51348007800F0BEF90600002E0BD03078032802D03078012839
:20C0E00002D1F06800F01AFD300001F015F995F4004080B200E0002070BD08490870704737
:20C10000074908707047074908707047064908707047064908707047B2480020B3480020F0
:20C12000B4480020B5480020B6480020B7480020284F00202DE9F84304462448007801284A
:20C140000F461546994608D121480188491E018089B211B9012000F041F8DFF8788098F8EF
:20C160000000FF2678B10C2001F012F848B3902101704670022101714480C58087600146AB
:20C1800098F8000019E0082001F002F8010018D0012008704E70781F48600222027048683E
:20C1A0004470200A4A6840EA091090704868C57000204A68107108480078BDE8F44300F0E0
:20C1C00001BC3846BDE8F24300F0A8BC244F0020264F0020B5480020B2480020DFF800F0D0
:20C1E000D55800102DE9FE4F234C80460CAF1E46019260683D7800918047A146B8F1000F44
:20C20000029005D1D9F8081088470220BDE8FE8F1A4800274FF00F0B4FF0010A041F54F80F
:20C22000080FD8B9012D0CBF114B124B1348019A008897FBFBF140180AFA07F1C0B2984703
:20C2400060B90098C4F80080606006B13770D9F80810029888470020BDE8FE8F7F1C0F2F56
:20C26000DDDBD9F80810029888470820BDE8FE8F75CD010055CF010048480020604400207E
:20C280002DE9F041904606460F1C08BF05243DD036F07F0001D001F04FF8092EA8BF03249A
:20C2A00007DA57F80C0C18B917F8020CFF2804D00524384601F030F828E007F8026C154CB7
:20C2C000154D6068B8F1010F13D080470246002047F80C0C6868002808BF6F6005D0014668
:20C2E00051F80C0C18B941F80C7C104606E00146F6E78047696847F80C1C6F60A168884745
:20C3000030464FF40041FFF76BFE00242046BDE8F081C0464848002018460020002A4AD0AC
:20C320005FEA000C8B071CD1830722D1102A08D370B4103A78C978C0103AFBD270BC10322B
:20C3400038D0042A2CD3082A05D30C2A24BF08C908C008C908C008C908C092072AD0920F86
:20C3600022E00B780370491C401C521E22D08B07F7D1C30714D18307D8D0121F12D308C980
:20C3800003801B0C4380001D121FF8D20AE008C903701B0A43701B0A83701B0AC370001D85
:20C3A000121FF4D2121D05D00B780370491C401C521EF9D1604670472DE9F0470C468046CF
:20C3C000E00BC00318BF84F4004437D1002C08BF002034D0DFF870904E467068804782462B
:20C3E00018480188002501232A4603FA02F73C4203D1521C0F2AF8DB1BE0D3004546CE01B1
:20C40000EA01001DA6EBC101A2EBC5029E1A8D1A8A1981585D194619BDB211B1801840684C
:20C4200088474046294600F0E1FD10B9002030607060D9F80810504688476C40A0B2BDE830
:20C44000F087C04660440020484800202DE9F843224D07466868804781461F48436800244A
:20C460006FF00B0680469C4213D013F8020C874208D134B16BB138464FF40041FFF7B0FD64
:20C480000CE01C460CB9A3F10C0653F80C3C002BEBD138464FF4004100F042FDACB168680B
:20C4A0008047D8F80410A4F10807A14219BF54F80C1C316057F8041CC8F80410002147F8CA
:20C4C000041CFF26BE71A9688847A968484688472046BDE8F883C0461846002048480020E0
:20C4E0002DE9FC411D4C0546A4F118073868002818BFFF202DD11A4E301D00688047241DA0
:20C50000804644F81C5CF8690028FCD00025256025603869000809D30F480069406A804767
:20C520008DF800509DF800000028FBD054F8180C00F0FF00012808BF01258DF801509DF8BE
:20C5400001000028FBD0B1684046884754F8180CC0B2BDE8FC81C0462C4F00201810044068
:20C5600048480020F9F713BC004805E088480020004801E08C480020006800B10120704721
:20C58000010001D0172801DBFF2801D101207047002070472DE9F84F0D4693460024BBF1AD
:20C5A0001F0F80461F462C7003DB0020BDE8F28F0419E4B25C45F8D2E65D641C002EF4D08F
:20C5C000E4B231198B45F0DB14F807A05046FFF7D7FF641C0028E8D0701EC2452870E7D186
:20C5E000E4B2E019E2E7002213460A46194671B510F0030F0BD0002A82BF00F8011BB2F184
:20C60000010210F0030FF6D1002A08BF71BD11F0FF0141EA0121042A18D341EA0141082A19
:20C620000FD30E46102A08D30C460D46B2F10F0312F00F0272C0103BFCD812F0080F18BF01
:20C6400042C012F0040F18BF40F8041B12F0020F18BF20F8021B12F0010F18BF017071BDEE
:20C660004EF624510428CEF2000130D0052829D0062822D00F2817D010282CD32F2809D940
:20C680004EF2841230380121CEF2000201FA00F0106070474EF2801210380121CEF2000268
:20C6A00001FA00F0106070474EF21001CEF20001086820F0020008607047086820F4802091
:20C6C00008607047086820F4003008607047086820F48030086070474EF624510428CEF270
:20C6E000000130D0052829D0062822D00F2817D010282CD32F2809D94EF204123038012185
:20C70000CEF2000201FA00F0106070474EF2001210380121CEF2000201FA00F010607047B5
:20C720004EF21001CEF20001086840F0020008607047086840F4802008607047086840F41F
:20C74000003008607047086840F48030086070471448B0B5B0F1FF3F01D000F005FA124D58
:20C760001248A84210D01248124CA0420CD0001BC71054F8040B10F8011B55F8212054F8D4
:20C78000041B90477F1EF4D1FCF763FF0A4D0B4CA54205D002E054F8040B8047A542FAD1CC
:20C7A000B0BDC046FFFFFFFF94E10100A0E10100C8E10100B0E101000000000000000000D6
:20C7C0002DE9F041174F0546786816460C4680478046154800698068804711480168A94323
:20C7E000016001682143016050F8041C0D432C4340F8044C50F80C1C0E4340F80C6C1B204F
:20C8000000F0FAFC192000F0F7FC122000F0F4FC1A2000F0F1FCB96840468847BDE8F08161
:20C8200018100440484800202C4F00202DE9F843164C064660688846804781460F2E1EDAE9
:20C84000134901EBC6004068C8B10F200127B6FBF0F5B7400E46308839462818C0B200F098
:20C86000C5FB60B13088394642462D18E8B200F071FBA168484688470020BDE8F883A1683E
:20C88000484688470220BDE8F883C04648480020604400202DE9F04106460F46092EA8BFF9
:20C8A000032024DA134C207800B3134D68688047804660886FB9012107464FF6FF72B140CA
:20C8C0004A401040608077B168B9002000F0B4FC09E018B9012000F0AFFC60880121B14024
:20C8E000084380B26080A968404688470020BDE8F081C0462847002048480020F8B540F617
:20C90000FF7C10F8014B00231DE0122F00F1010008D110F8015B2E0A24BF10F8016B66F3D0
:20C92000DF15EF198A1A521E12F8015B7F1E01F8015BF9D103E010F8012B01F8012B5B1C12
:20C940006408082BDDDA6208F5D210F8012B057805F00F071201FF1C42EA25129445D4D185
:20C96000F8BDF8B506AF3C880E46054644BB022B24D150781478BB8804EB002434EA030051
:20C980001AD1F1680968284600F06EFD844211D0F06806683146284600F06EFC48B94FF627
:20C9A000FF70314600F068FC002808BF112008D0058084700020F8BD8020F8BD0D20F8BDC0
:20C9C0000B20F8BD70B502460D4632F07F0004D110460022FFF754FC70BD00F089FD104987
:20C9E0004C78A5F10C06FF2802D0496A4018447AFF2C02D100F0A0FC0DE0104600F0C6FC8A
:20CA000001462A46FF20B072204600F021FA20B1284600F081FC012070BD002070BDC04660
:20CA200018460020F8B5134D06466868804707460F2E19DA104901EBC604241D206898B1EA
:20CA4000084600880F210123B6FBF1F14018C0B203FA06F100F098FA002638462660A9689E
:20CA6000666088473046F8BDA968384688470220F8BDC04648480020604400202DE9F843F6
:20CA800008AF3E7881461C461546884606F10C0080B200F07DFB071C16D0802038707C70FD
:20CAA00040F27F637B800949A7F804803246BD7107F10C04FE7107F10C00BC6000F0A7FC22
:20CAC00048463946FFF77EFFBDE8F8834747002010B5104C10342068806880470E4A0420F0
:20CAE0000021401E42F8041BFBD12068016B122000F0ACFA2068C16A192000F0A7FA2068D1
:20CB0000416B1A2000F0A2FA2068816A1B2000F09DFA10BD2C4F0020EC4F0020F8B5104CA2
:20CB20000546606880470F4906460868A0B1002700F10802AA4204D8828882180832AA4202
:20CB400004D2074600680028F2D105E007B90F460168396000F0C0FBA16830468847F8BDB5
:20CB60004848002030470020F8B506460F4D104F7388002417E0A00000EBC4003218516852
:20CB80009068D26852B9AF420BD00A7855F822200346491C08461946904701E0FFF7BEFBB9
:20CBA0007388641CA4B2A342E5DCF8BD94E10100A0E10100F8B51446064600F07DFB0D4643
:20CBC000002818BF446016D1102000F095FA0A490F68002808BF00200DD086720581446044
:20CBE00000220260C2602FB1394600E011460A68002AFBD10860F8BD6C48002038B50E4C59
:20CC0000606880470546192000F0E6FA122000F0E3FA1A2000F0E0FA1B2000F0DDFA0748DD
:20CC200000211038C16041608160816001600160A1682846884738BD4848002018100440EE
:20CC40000B4A08B502F10C000068C00A01D200F0E5F810684008FCD30648006841680220E1
:20CC6000884705490A6882420CBF0448086008BD08800240CC010010A4480020EFBEADDE32
:20CC800010B50821ADF1180DADF800100A4C04901B21ADF80210E069029001210191054974
:20CCA000064803910168684688470299E16106B010BDC046A5D001001846002048480020A2
:20CCC00010B5ADF1180D019009480A4C0390E0690491082202900848ADF8002013220168B4
:20CCE000ADF80220684688470298E06106B010BDA5D00100184600204848002070B50C4C71
:20CD000005466068804706461A2000F065FA09480021103841600160016041680D434560A9
:20CD20001A2000F069FAA1683046884770BDC0464848002018100440F8B50D4C0546201D3B
:20CD400000688047064605F1080080B200F0D4F9071C05D00549BD8008680F603860083732
:20CD6000A168304688473846F8BDC04630470020484800202DE9F0410C4D8046281D0068D2
:20CD800016460C4680470746214632464046FFF711FF041C18BFE660A96838468847002C9F
:20CDA00014BF00200820BDE8F081C0464848002030B51546ADF1140D0822ADF804001C4658
:20CDC00002910848ADF8002000220168ADF8022068468847BDF80C1029800499216005B08F
:20CDE00030BDC0464848002010B54FF6FF74844206D000F041FA68B104800021817010BDD0
:20CE00000548007830B10022091F21F8044F401E8A70FAD110BDC0467C470020094908681B
:20CE200020F4806008600004000C40F48030086005484860086840F48060086003490020ED
:20CE4000086070471480024004010100A448002000B5ADF1140DADF804000823ADF80030AE
:20CE6000ADF8061000208DF808000623044803920168ADF802306846884705B000BDC0460B
:20CE8000484800200B4810B5001D006860B9074C60688047064A516893689943C9431160ED
:20CEA0001160A168884710BD804710BD4848002010100440EC4F00200A4810B508300068A2
:20CEC00060B9094C60688047054A536891681940C94311601160A168884710BD804710BDD2
:20CEE00010100440EC4F002048480020094810B50C30006858B9084C606880470749083984
:20CF00004A68D2430A600A60A168884710BD804710BDC046EC4F00204848002010100440C8
:20CF200070B506460D46092E0DDA084C6068804707490A6832F81610A94322F81610A168E5
:20CF40008847002070BD032070BDC04648480020A84800202DE9F0410A4C06466068174691
:20CF60000D468047804629463A463046FFF722FEA168074640468847002F14BF0020082061
:20CF8000BDE8F08148480020F8B50B4D0746281D00680C46804706462146384600F08CF90D
:20CFA000041C1CBF00202081A96830468847002C14BF00200620F8BD484800200A4A08B5A4
:20CFC0000021273212F8013FFF2B04D1107041F08001C8B208BD9842F9D0491C0829F1D320
:20CFE00000F0AAF9FF2008BD18460020F8B50A4C0746201D00680D468047064629463846F4
:20D0000000F05AF9002814BF45680025A168304688472846F8BDC04648480020022908BFE7
:20D0200001780CD0032908BF017805D004290AD1C278017801EB0261827801EB024140786F
:20D0400001EB0020704700787047000000B5ADF1140D019008220291802003900548ADF8F7
:20D06000002028220168ADF802206846884705B000BDC0464848002010B50C4601462046AD
:20D08000491E07D0491E02D0FFF756FE10BDF6F763F810BD1946029B144602462046FDF7F5
:20D0A000B9FE10BD70B5094C0546201D0068804706460548016AA94202D1C06800F0CCF81D
:20D0C000A1683046884770BD184600204848002010B503460C4600F049F858B1191B00F1E8
:20D0E00008021C1BA24205D8828880180830884228BF0B1C184610BD0EB508210190074885
:20D10000ADF800100421ADF8021001686846884700280CBF029800200EBDC046484800206A
:20D1200007480068002808BF002107D005494268914288BF111C00680028F8D108467047B4
:20D140006C4800208EC2F52810B5064C606880470549002210398A608A600A600A60A1687E
:20D16000884710BD484800201810044001460748006800E0006840B100F108028A42F9D828
:20D180008288821808328A42F4D370473047002010B5041C05D004F10C0080B2FFF7ACFF42
:20D1A00008B9002010BD002101600481FF2383720C3010BD10B504466088002818BF6FF045
:20D1C000010008D1E088FFF7F9FE2072FF280CBF6FF00300002010BD0EB508210190054883
:20D1E000ADF800100E21ADF802100168684688470EBDC046484800200EB508210190054863
:20D20000ADF800100D21ADF802100168684688470EBDC046484800200EB50820ADF800007D
:20D220001220ADF80200034801686846884701980EBDC046484800200EB508218DF8040055
:20D240000448ADF800101721ADF802100168684688470EBD484800200EB5082101900548B3
:20D26000ADF800100B21ADF802100168684688470EBDC04648480020064A127842B1091FBA
:20D2800031F8043F984208BF081C02D0521EF7D1002070477C470020064808B500210C3031
:20D2A000016001600248006800B1804708BDC046EC4F00201010044002460648006800E01A
:20D2C000006828B103899942FAD1837A9A42F7D17047C0466C4800200EB5082101900548DF
:20D2E000ADF800100521ADF802100168684688470EBDC0464848002010B5401E491E4AB1B0
:20D3000011F8013F10F8014FA34218BF002002D1521EF5D1012010BD08B5002808BF0520C8
:20D3200009D010F8021CFF2918BF042003D10C38FFF7D2FF002008BD08B50820ADF800007D
:20D340000C20ADF80200024801686846884708BD48480020801E0022012804D9801E04D11C
:20D36000042902D102E0102900D002221046704770B50D460646A8B2FFF7BEFE041C03D0CE
:20D3800031462A4600F043F8204670BD10B580F08004082C01DBFFF7CFFF02482830005D5C
:20D3A00010BDC046184600200346104641181A46491E28B111F80139401E02F8013BF9D1E3
:20D3C0001046704728B142B1401E10F8013F994201D000207047521EF7D10120704710B576
:20D3E00004460846012C114602D1FDF74FFD10BDFFF794FB10BD00F8011B0A0A00F8012B93
:20D400000A0C00F8012B090E00F8011B7047034610461A4628B111F8013B401E02F8013B3F
:20D42000F9D11046704730B502FB01F403FB00444FF00005E2FB00542146284630BDADF127
:20D44000080D01208DF800009DF800000028FBD102B07047421E4FF0FF3112F8010F491CD1
:20D460000028FAD10846704708B5FFF705FF002814BF8078002008BD10B500F020F8002434
:20D4800000B10124204610BD10B500F01EF8002400B10124204610BD08B50221684600F00D
:20D4A00003F8BDF8000008BDDFF800F001580010D0F80320C31D08461946FEF72FBFEFF38A
:20D4C000108072B6704700207047EFF3108062B6704700207047D0F8032008460021FFF79E
:20D4E00086B81CB500240094FEF77CFE1CBD0000014800787047C04618460020FFF777B8FC
:20D500000A2070470A207047DFF800F049980010DFF800F09D580010DFF800F0D5700010A9
:20D52000DFF800F0A18B0010DFF800F0DD8A0010DFF800F0818C0010DFF800F05D960010FC
:20D54000DFF800F031960010DFF800F0F5950010DFF800F04DD90010DFF800F0DDB9001062
:20D56000DFF800F0E19B0010DFF800F0C59B0010DFF800F009B00010DFF800F055B50010B0
:20D58000DFF800F041B50010DFF800F0EDB40010DFF800F0D9890010DFF800F06D98001031
:20D5A000DFF800F0D9980010DFF800F0BD980010DFF800F0A1980010DFF800F0B1AD0010B2
:20D5C000DFF800F0D5570010DFF800F0519B0010DFF800F041950010DFF800F071950010FB
:20D5E000DFF800F0D1950010DFF800F03D970010DFF800F065970010DFF800F08D97001075
:20D60000DFF800F029980010DFF800F0F5980010DFF800F0C9990010DFF800F0F99900106C
:20D62000DFF800F0159A0010DFF800F0319A0010DFF800F0A19A0010DFF800F0F59A00104A
:20D64000DFF800F0159C0010DFF800F08D9C0010DFF800F0099D0010DFF800F0459D00100C
:20D66000DFF800F0D19D0010DFF800F02D9E0010DFF800F04D9E0010DFF800F08D9E0010FF
:20D68000DFF800F0AD9E0010DFF800F0CD9E0010DFF800F0ED9E0010DFF800F00D9F001041
:20D6A000DFF800F0499F0010DFF800F0699F0010DFF800F0D19F0010DFF800F011A00010FD
:20D6C000DFF800F031A00010DFF800F075A00010DFF800F0F1A00010DFF800F06D9E00106C
:20D6E000DFF800F009A10010DFF800F0B5A10010DFF800F025950010DFF800F0A1AF0010C4
:20D70000DFF800F0297F0010DFF800F0E1910010DFF800F0557D0010DFF800F0A97C00109C
:20D72000DFF800F03D930010DFF800F0DD930010DFF800F0F5B50010DFF800F0557C0010D2
:20D74000DFF800F0957B0010DFF800F05D920010DFF800F069800010DFF800F0F18600100E
:20D76000DFF800F0B5C10010DFF800F031860010DFF800F0E9940010DFF800F0E1AC001016
:20D78000DFF800F035A30010DFF800F0E5730010DFF800F071940010DFF800F0697200101D
:20D7A000DFF800F02D8A0010DFF800F061840010DFF800F019570010DFF800F0C9B4001084
:20D7C000DFF800F089D10010DFF800F0AD8E0010DFF800F01DB50010DFF800F0B5D80010F9
:20D7E000DFF800F06DAD0010DFF800F021AD0010DFF800F001720010DFF800F0F57D001000
:20D80000DFF800F06DD20010DFF800F0BD800010DFF800F08D670010DFF800F00D720010BD
:20D82000DFF800F03DAC0010DFF800F06D550010DFF800F0F58B0010DFF800F0A19400102C
:20D84000DFF800F0C9870010DFF800F0C1D80010DFF800F041870010DFF800F02187001013
:20D86000DFF800F0F5D80010DFF800F0C9D80010DFF800F0EDAB0010DFF800F02984001099
:18D88000DFF800F065B90010DFF800F049550010DFF800F019870010AF
:20D89800F9D00100D9D2010095C8010091D10100C5C90100E1BF01000FD40100FDD4010053
:20D8B80039CD01001DCB0100D1D0010055CF010089CF010021CF01000345010089D40100A8
:20D8D80079D40100D9C6010061C60100EB8201001DCE010041CC01003B680100A9680100FC
:20D8F800BF6801003D6A0100CB690100D5640100F16A0100036B010089660100FF660100B0
:20D918008D690100B2480020B5480020B4480020B6480020B348002058E00100DD8A0010BC
:20D93800A18B00102D8A001025950010F1A0001009A10010799D00106DA40100AD9D001015
:20D95800D19D001049A4010011A00010699F0010ED9E001095A00010D1A00010F19F001069
:20D97800AD9E0010CD9E00108D9E0010B5A10010459D001095A1001075A0001031A00010DA
:20D998001BA40100B19F00100D9F00104D9E0010819F00102D9E0010D19F0010D59C00108C
:20D9B800499F00106D9E0010099D0010F58B0010319600105D960010159A0010F9990010BB
:20D9D800F9A301003FD401003FD40100F59A0010E19B0010C59B0010519B0010F598001036
:20D9F800FBA20100A19A00102998001083A30100159C0010C9990010BFA30100319A0010BD
:20DA1800A1980010D99800106D98001071A401003FD40100499800103FD401003FD40100CC
:20DA3800BD9800103FD401008D9C0010ADA301008D9B01006597001027A201003D970010E8
:20DA5800A9A40100419500108D970010D195001005A20100CDD70010818C0010598C001062
:20DA7800318D0010E9940010F595001071950010C9A10100B39D0100A194001039570010E2
:20DA9800818D00103FD40100195700108D6700109D9A01004D1F0100AD8E00103FD40100B4
:20DAB8003FD40100D5580010251E0100719400104D1D01005B1C0100395A00100590001079
:20DAD80039B60010F5B50010DDB9001051B8001065B9001021B7001055B5001041B5001080
:20DAF80069B500100DB500101DB50010C9B400108DB50010EDB4001025700010F5210100E0
:20DB18007D6B0010C5210100816B0010856B0010A17000104D6F0010D16D00101D7000103A
:20DB3800ADA2001021700010496F0010916C0010D91B0100016C00100D710010596B001024
:20DB580009710010ED6F0010996F001059A20010D5700010FD6E0010016E0010C56B001005
:20DB7800F96E0010611A0100C91A0100D96A001001A20010856E0010DD6B0010911A0100A9
:20DB980011A200103D930010DD930010E11901008F1901005D920010D5570010E512010073
:20DBB800B957001037160100015800106D550010F5570010D5A1001005610010C95600101D
:20DBD800A1590010795800109D580010171A01001F9B0100E9580010E1910010D55900103F
:20DBF8008D210100E51A0100A1570010655700103D17010035C1010049200100895F0010DC
:20DC1800695E0010E95600103FD401003FD401002D6100103FD4010049550010231B0100FF
:20DC3800D9D20010ADD10010F5D1001025D400106DD200103DD2001029D2001089D10010C1
:20DC58006DD30010DDD300108BBB010051CD00102592010071CC001075F200000FBB0100F0
:20DC78003FD401004DD90010B5C10010A5730010E9720010B9F600003186001041870010DB
:20DC9800218700108589001065890010ABF70000218900107DC80010E5720010ED72001011
:20DCB800BD80001089880010B58800103FD401003FD401003FD4010019870010F18600101E
:20DCD80039A9001095A80010EDAB00103FD401003FD40100A9AC00103FD401003DAC0010AB
:20DCF800C1D8001023FC00005BFA00002F000100E1AC001009B00010C1BB010069BB0100B7
:20DD1800D1FF00003FD401003FD401000D7200109FF30000B5D800103FD401003FD401000D
:20DD38003FD401003FD40100F1890010D9890010A1AF00103FD40100B1AD001065860010CA
:20DD5800EDFF00003FD401003FD401004FF60000F17200103FD401006D7D0100234101007B
:20DD7800E982010041AE001045AE001049AE00106184001029840010E9F700000172001001
:20DD980015FF0000697200103FD40100F1BB010035A30010DDBA0100E1720010790001004E
:20DDB8009FFF0000E5730010B1AE00103FD40100398201003FD40100957B0010B7F3000028
:20DDD80001F400003FD401003FD4010021AD00103FD40100C13D01003FD40100557D001027
:20DDF800C9AD0010F57D00106DAD00103FD401003FD40100557C0010A97C0010C9010100D0
:20DE1800698000103FD401003FD40100297F0010C53B0100C9D80010F5D800103FD401006E
:20DE3800C9870010E1D9001039020100758D0100898F0100679101003BA20100BDA2010011
:20DE5800E1A2010029A301005BA301004F180100F91801001B1901006B9C0100B11E0100D3
:20DE7800ED1E0100E59C010059F400008FF40000E5F40000AFFE000079FC0000CFFC000066
:20DE9800D9F50000F5F1000027F50000F5FD0000F1810100519A0100D1A301007DF800005F
:20DEB8000FF80000B9210100C10001003FD401003FD401003FD401003FD401003FD4010042
:20DED8003FD401003FD401003FD401003FD401003FD401003FD401003FD401003FD401008A
:20DEF80089010100F9D00100D9D201001DCB01000FD40100FDD40100EB820100D1CA010060
:20DF1800C1C70100FDCB010049D10100FDCC010035890110E1C401000DBF01003D89011099
:20DF38004589011099D2010085CE0100B9CE0100EDCE0100AD820110158301103D8301102C
:20DF5800698301109183011015840110B983011085840110A9840110C5840110CD8401107C
:20DF7800D1840110D5840110F98401104985011051850110E18501106986011075690110FF
:20DF98007969011085690110996A0110F56A0110796B0110296C0110456C0110796C0110A0
:20DFB800056D0110296D0110A16D0110C96D01108D6E0110A16E0110D56E01106573011050
:20DFD800FD7401107D7601103978011095780110F578011071770110ED750110098B011034
:20DFF800998A0110C58A0110198A0110358A011037160100BFC00100B9C30100CD88010050
:14E0180051B101003DBD010009AC01002B030100E14D0100E2
:20E02C00006131002CE00100010000000000D0020A05000000000000020100000000000050
:20E04C001000000000000000EC000021000000000572010054E0010038E0010000000000D1
:20E06C003CE0010040E0010044E0010048E001004CE0010050E00100E4460020020000005E
:0EE08C0088BA0100020000008CBA010083ADCA
:20E0A00000EBFF00000F680207B090BA01BB0001083088E00100F29C5E00F4364700200120
:20E0C000F1B801F453804600F301F53701F4BC03F4557C01FC3803F4C805F47403F0BF00DD
:20E0E00000B4000028001130F775A0000013000800085FE001F000100018500012D6011132
:20E10000D00711E30F0A30050077307507027001008113442A0BF9900BFC3C0BF4CC0DF0AF
:20E120000EF935A80EF00317305C4808F117CF087701350C1992801A061A1F03341B7F3AE0
:20E14000203D50117100E80A6103FF14FC244C253D876D0100396FD70100D5007003055F38
:20E16000010308351B285230203034080DCB2231FE2A25D58301005B86016300070070126E
:20E18000762BF871BC16B3FF1700020202FFFFFF0120FFF0FDC80100B1D40100D7D40100CF
:20E1A0000200000010000000020000007E010000A0E0010060440020A0E10100EC4F0020AA
:08E1C000A8E101004047002026
:00000001FF
